:100000002038001023B80000CF800012CC000085FB
:1000100004180001CD80000ECD800083CC0000824A
:10002000CD800081CC00000B8000004A0000000061
:10003000CC00000ECC00000EC8100082202801C3A6
:10004000201C0000C8100082C80800857F8B800734
:10005000C808008194800030000000008000005635
:1000600000000000C9CC008394C00017000000000D
:1000700084000099200C0001840000AD20380000AD
:1000800097800011200C000DC0302009CCF1000039
:10009000C030200AC03418181374000823741818CC
:1000A000CB0D00007CF4C006C808001A988000063A
:1000B000201C000194C0FFFB0000000080000041F4
:1000C0007DC1C006840000C011B8001F840000ADCF
:1000D0002038000184000099200C0000C03001C0CD
:1000E000CB3900002038000095C0FFD3CF8000033B
:1000F0007DC1C006840000C0203800008000000DD3
:10010000CF80000320380001CF800003C810008298
:10011000CC000081C808001A948000100000000084
:10012000CD80000E00000000840000C011B8001F48
:10013000840000AB20380002CC310000840000AD08
:1001400020380001CD80008184000099200C00003F
:100150008000000D00000000C83800569B80006C35
:10016000201C0000C83800579B800069201C00013B
:10017000201C0000C80800819480001200000000CC
:10018000C82800009680000F20080001CD80000ED6
:10019000CC8000001C1C00002A8801BB9480000455
:1001A00000000000800000BB000000002A8801BCA5
:1001B000988000450000000095000023000000002A
:1001C000C82800029680000620080001CD80000E9D
:1001D000CC8000028000009100000000C8280001CF
:1001E000968000070000000020080001CD80000E6E
:1001F000CC8000018000009100000000C8280003AE
:100200009680000900000000CD80000E2A8C01E5D8
:1002100098C0FF9520080001CC8000038000009169
:1002200000000000C82800049680FF830000000042
:1002300020080001CD80000ECC80000480000091D9
:100240000000000084000095000000008000000D08
:10025000000000001EA800FFCE80000C88000000F7
:1002600000000000C0300390CB390000C00BFFFE3F
:100270007F8B800610CC00107F8F8007CFB10000ED
:1002800088000000CB390000CFB10000CD80000E07
:10029000CB39000017B800041FB8000F9780FFFD8E
:1002A000000000008800000000000000800000A2A4
:1002B000C03001C1C0302003CFB100008800000071
:1002C000CB390000C9F800839B80000400000000C7
:1002D0008000000D00000000CC1C0083840000C0E2
:1002E00011B8001F8000000D00000000CD9C0083AD
:1002F000840000C0203800009500FF51000000007D
:10030000C03001C088000000CFB1000099C0000BD0
:10031000C830004023300002CF000040840000D8E5
:1003200020380003C83000401F3003FDCF000040DC
:1003300080000056CC000056C830004023300040FA
:10034000CF000040840000E920380001C8300040A0
:100350001F3003BFCF00004080000056CC00005685
:10036000840000F400000000C0302008840000FC7D
:100370002038FFFFC0302008CC310000CB3900000E
:10038000C0300398840000FC20380100C03003987E
:10039000CC310000CB090000C03021B6880000003D
:1003A000CC310000840000F400000000203800017F
:1003B000C0300398840000FC13B80014CC00005730
:1003C000C0300398CC31000088000000CB09000049
:1003D000CF9C0016CD80000EC9F000187F38800C2D
:1003E0009480FFFE00000000880000000000000074
:1003F000CFB10000CB3900002008001F988000001A
:1004000008880001CC1C0016C9F0001B9700FFFFF4
:100410000000000088000000000000000000000054
:1004200000000000000000000000000000000000CC
:1004300000000000000000000000000000000000BC
:1004400000000000000000000000000000000000AC
:10045000000000000000000000000000000000009C
:00000001FF