:100000002038001023B80000CF800012CC000085FB
:1000100004180001CD80000ECD800083CC0000824A
:10002000CD800081CC00000B840001340000000072
:100030008000004900000000CC00000ECC00000E43
:10004000202801C3201C0000C80800857F8B800782
:10005000C80800819480002F000000008000005537
:1000600000000000C80C008394C0001700000000CE
:10007000840000C3200C0001840000D72038000059
:1000800097800011200C000DC0302009CCF1000039
:10009000C030200AC03418181374000823741818CC
:1000A000CB0D00007CF4C006C808001C9880000638
:1000B000201C000194C0FFFB0000000080000041F4
:1000C0007DC1C006840000F011B8001F840000D775
:1000D00020380001840000C3200C0000C03001C0A3
:1000E000CB3900002038000095C0FFD5CF80000339
:1000F0007DC1C006840000F0203800008000000FA1
:10010000CF80000320380001CF800003CC000081A5
:10011000C808001C9480001000000000CD80000E74
:1001200000000000840000F011B8001F840000D51A
:1001300020380002CC310000840000D720380001B4
:10014000CD800081840000C3200C00008000000FDF
:1001500000000000C83800569B80009D201C000055
:10016000C83800579B80009A201C0001201C00000A
:10017000C80800819480001300000000C828000017
:100180009680001020080001CD80000EC80C0020D1
:10019000CC8000001C1C00002A8801BB9480000455
:1001A00000000000800000EA000000002A8801BC76
:1001B0009880006F00000000800000BA000000007E
:1001C000C82800029680000620080001CD80000E9D
:1001D000CC800002800000BA00000000C8280001A6
:1001E000968000080000000020080001CD80000E6D
:1001F000C80C0021CC800001800000BA0000000083
:10020000C82800039680000900000000CD80000E81
:100210002A8C01E598C0FF9420080001CC800003DF
:10022000800000BA00000000C82800049680000783
:100230000000000020080001CD80000ECC800004EA
:10024000800000BA00000000C82800059680000762
:100250000000000020080001CD80000ECC800005C9
:10026000800000BA00000000CE0000A9CE4000AA25
:10027000C828002A9680000900000000CD80000EEA
:100280008400019F00000000C82000A9C82400AA23
:100290008000000F20180001C828002B968000095C
:1002A00000000000CD80000E840001AF00000000BF
:1002B000C82000A9C82400AA8000000F201800014F
:1002C000C82800289680FF5E00000000CD80000E48
:1002D000840001BB00000000C82000A9C82400AAB7
:1002E0008000000F20180001840000BE0000000004
:1002F0008000000F000000001EA800FFCCC0000B13
:10030000CE80000C8800000000000000C030039088
:10031000CB390000C00BFFFE7F8B800610CC001095
:100320007F8F8007CFB1000088000000CB3900002C
:10033000CFB10000CD80000ECB39000017B800040B
:100340001FB8000F9780FFFD00000000880000002C
:1003500000000000800000CCC03001C1C03020038C
:10036000CFB1000088000000CB390000C80C00406D
:10037000C012A0007D0CC0067D0CC00CCCC00029B2
:10038000C83800839B800004000000008000000F3C
:1003900000000000CC000083840000F011B8001FB2
:1003A0008000000F00000000CC000029CD800083F9
:1003B000840000F0203800008000001000000000E1
:1003C000C03001C088000000CFB1000099C0000B10
:1003D000C830004023300002CF00004084000108F4
:1003E00020380003C83000401F3003FDCF0000401C
:1003F00080000055CC000056C8300040233000403B
:10040000CF0000408400011920380001C8300040AE
:100410001F3003BFCF00004080000055CC000056C5
:100420008400012400000000C03020088400012C5A
:100430002038FFFFC0302008CC310000CB3900004D
:10044000C03003988400012C20380100C03003988C
:10045000CC310000CB090000C03021B6880000007C
:10046000CC3100008400012400000000203800018D
:10047000C03003988400012C13B80014CC0000573E
:10048000C0300398CC31000088000000CB09000088
:10049000CF9C0016CD80000EC9F000197F38800C6B
:1004A0009480FFFE000000008800000000000000B3
:1004B000CFB10000CB3900002008001F9880000059
:1004C00008880001CC1C0016880000000000000015
:1004D000C0080500200C0000CC8C0087C00A20203A
:1004E00020880F0504CC0001CC8C0087C00A303076
:1004F00020881E0F04CC0001CC8C0087C00A40402D
:100500002088281E04CC0001CC8C0087C00A404003
:100510002088322804CC0001CC8C0087C00A60609F
:1005200020883C3204CC0001CC8C0087C00A70705B
:100530002088503C04CC0001CC8C0087C00A80800D
:1005400020885A5004CC0001CC8C0087C00A8080DF
:1005500020885F5A04CC0001CC8C0087C00A8080C0
:100560002088645F04CC0001CC8C0087C00A8080A6
:100570002088696404CC0001CC8C0087C00A80808C
:1005800020886E6904CC0001CC8C0087C00A808072
:100590002088736E04CC0001CC8C0087C00AC0C0D8
:1005A0002088787304CC0001CC8C0087C00AC0C0BE
:1005B00020887D7804CC0001CC8C0087C00AFFFF26
:1005C0002088807D04CC0001CC8C0087C00A00808C
:1005D00020880020CC8000A6CC0000988800000075
:1005E000CC000097C008200BC00E4000CCC9000012
:1005F000840002FF00000000C80800977C94800C73
:1006000098800009C00824D5CD400097CD4900004E
:100610007C148007840002B500000000CCC0009F5D
:10062000CCC000A1C008200BC00E4001CCC9000006
:10063000840002FF00000000C80800987C94800C31
:100640009880000DC00824D5CD400098CD49000009
:100650007C148007840002B500000000CCC000A01C
:10066000CCC000A2C00C200BC012C000CD0D0000F9
:10067000C8D100008800000000000000C0200391E5
:10068000C0240003CE610000C0080500840001CB37
:10069000CC00009BCC00009CC8080046C80C00455C
:1006A0007CC880014088000484000343CC0000A77C
:1006B000CD4000A888000000CC210000C0080391B4
:1006C000C00C0003CCC90000C0080000840001CBAE
:1006D00000000000C00C0FFFC00824D6CCC90000E9
:1006E000C008039188000000CC090000C0080391F5
:1006F000C00C0003CCC90000840001D5000000003C
:10070000C80800A704880001CC8000A7308C000432
:1007100098C0000400000000840001E3D00000A79E
:10072000C008039188000000CC090000C00C200B19
:10073000C012C000CD0D0000C00C239ACC8D00006B
:10074000C00C239CCC8D0000C00C239888000000B6
:10075000CC8D0000C00803208400020900000000C6
:10076000C808009B7D488010CC8000A4CD40009B31
:10077000840002A200000000C808009C7D48801090
:10078000CC8000A588000000CD40009C8400017949
:1007900000000000C0080700840001CB000000003A
:1007A000C00801008400020900000000CD4000994B
:1007B000C00801108400020900000000CD40009A2A
:1007C000C81000A1C82C00A27D2D0000C808009907
:1007D000200C00872024000084000321000000007A
:1007E000CD40009DC808009A200C008720240001FD
:1007F0008400032100000000CD40009EC80C009D35
:10080000C810009E7CD140119940000300000000F8
:100810007D00C0078400024BCCC000A3880000000C
:100820000000000020140000201C0000C00C200B61
:10083000C012C000CD0D0000C0102398CC91000064
:10084000C010239ACC910000C010239CCC910000D2
:1008500020180000C0124000CD0D0000C0102399E8
:100860008400022D000000007D694000C010239B21
:100870008400022D000000007D694000C010239D0F
:100880008400022D000000007D6940009980000472
:100890002018000180000216C012400199C0000417
:1008A000048800018000020C201C00018800000068
:1008B00000000000C92100001E28FFFF16200010C4
:1008C0007EA28000880000000000000015E8000102
:1008D0007E26C01096C0000B7EA6C00F96C00003F7
:1008E000000000007C2A40077DE680017EA2C00F48
:1008F00096C0000D00000000800002497C2A00071D
:100900007EA2C00F96C00003000000007C2A0007F2
:100910007DE280017EA6C00F96C0000300000000AB
:100920007C2A4007880000000000000028D000401A
:1009300099000052C83800A1C83C00A238DC004031
:1009400095C0001D7FBD800008CC00407CD9C0123E
:1009500015DC0006C820009F7E3A0001C82400A0D4
:100960007E7E400184000233C008200BC00E400090
:10097000CCC90000C80C00977C214007840002BE4F
:10098000000000007F9F8000CF8000A1C008200BE6
:10099000C00E4001CCC90000C80C00987C2540075F
:1009A000840002BE000000007FDFC0008000029EC5
:1009B000CFC000A2201C000099C0000EC82000A4D7
:1009C000C82400A57E25C007C820009BC82400A617
:1009D0001E68FFFF7E2A80107DE9C007C820009CAA
:1009E000166800107E2A40107DE5C00799C00023DC
:1009F000201C00407DCCC0017CD9C01215DC000653
:100A00003BA0000196000003000000000BA00001C5
:100A10003BE4000196400003000000000BE40001ED
:100A20008400023300000000C008200BC00E40000C
:100A3000CCC90000C80C0097201000017C214007A1
:100A4000840002D7000000007F9F8001CF8000A1BA
:100A5000C008200BC00E4001CCC90000C80C009893
:100A6000201000017C254007840002D70000000010
:100A70007FDFC001CFC000A2C00C200BC012C0009D
:100A800088000000CD0D0000C00C24D4C01024D676
:100A9000C008200BC01AC000CD890000201C000136
:100AA000CDCD0000C01A4000CD890000C8990000DB
:100AB000C9150000C01A4001CD890000C899000086
:100AC000C91D00007D5D4000C022C00088000000FC
:100AD000CE090000200C0000C010000C1C94000186
:100AE000091000017CD4C0009900FFFD14880001AA
:100AF0008800000000000000C00824D5C88900005C
:100B00007C098007201C0000202C0000C020000C65
:100B1000954000107CAF40047CEE80041F740001FF
:100B20002B7400007F6B40069740000620300001C8
:100B30007F2F00037DB180070954000105DC00010F
:100B40000A20000106EC00019A00FFF200000000FC
:100B5000C00824D588000000CD890000C00824D535
:100B6000C88900007C098007201C0000202C0000A0
:100B7000C020000C954000147CAF40047CEE800443
:100B80001F7400017F6B40067D2E80041EA80001AB
:100B90002AA800007F6B4006974000070000000075
:100BA000203000017F2F00037DB18008095400012F
:100BB00005DC00010A20000106EC00019A00FFEEAE
:100BC00000000000C00824D588000000CD89000086
:100BD000C808008650880008200C008720140010E8
:100BE000C8920000CD0C0000095400019940FFFD9F
:100BF00004CC000188000000000000008400030B0A
:100C000000000000C0082254C889000014880010A9
:100C1000C00C2255C8CD000014CC00107C8D4007BC
:100C20007D514007880000002554FFFFC00823883D
:100C3000C8890000C00C2389C8CD00007C8C8006C8
:100C4000C00C2366C8CD00007C8C8006C00C238AB3
:100C5000C8CD0000C0102367C91100007CD0C006B9
:100C6000C01100007CD0C0077C8C8006148C001062
:100C70001CCCFFFF1C88FFFF7C8C800688000000D6
:100C80002490FFFFC81C00A809DC000709DC000451
:100C9000202000003E180010958000040000000095
:100CA0008000034120140040C8D4000004CC00019F
:100CB00006200001201800FF7D9580067D9180129E
:100CC0007D9D80037C9980119580FFF32018FF00A3
:100CD0007D958006159800087D9180127D9D80038A
:100CE0007C99800F9580FFEC0000000015540010E7
:100CF000964000030000000015540008201800FF73
:100D00007D95400688000000000000002014001FB0
:100D10007C94C0041CCC000198C0000500000000B9
:100D2000095400019940FFFB00000000880000000A
:100D300000000000000000000000000000000000B3
:100D400000000000000000000000000000000000A3
:100D50000000000000000000000000000000000093
:100D60000000000000000000000000000000000083
:00000001FF