:100000003438001037B80000CF800012CC0000D385
:10001000CC0000DD04180001CC1800D3CC0000C9CE
:10002000CC1800C9CD8000D5CD9800D5CC0000CB30
:10003000CC1800CBCC0000D9CC1800D9CC0000C320
:10004000CD8000C8CC1800C1CC0000C1CC0000CCD1
:10005000CC00000BCC00000E8000021F000000004E
:1000600034200004CC00000EC81000CBC83800CCEF
:100070009B80018A00000000C8380056342801C364
:100080009B80018C341C0000C81000CBC9EC00D947
:10009000C9F800D3C80800DD7CB8C00C98C00017B0
:1000A00000000000C80800C8948001F100000000B2
:1000B000C80C004030CC002094C0004ACD8000DD48
:1000C000C428000996800044CD8000DDC9C800D551
:1000D000C9CC00C97CC8800C9480002000000000BE
:1000E000C8280009342801DFC9EC00008000010A9B
:1000F000CD80000E00000000C8380057342801E110
:100100009B80016C341C0001C8080040308800202E
:1001100094800034CC0000DDC428000A96800031B1
:10012000CC0000DD341C0001C9C800D5C9CC00C911
:100130007CC8800C9480000900000000C828000AD8
:10014000342801F0C81000CBC9EC00D98000010AA6
:10015000CD80000E00000000C9EC00D9C9C800C164
:100160009880002000000000840002517F03000BF3
:10017000CB3800429780011000000000CB380041CE
:1001800067B8000834340007CC000015CB8A0000A3
:100190000B7400019B40FFFE07B80004CACC0006A8
:1001A0007CC88002948001040000000099C0000611
:1001B00034200003C8280009342801DF8000010A28
:1001C000CD80000EC828000A342801F08000010A02
:1001D000CD80000EC9C800C99880FFA500000000AE
:1001E000C80800C89480004700000000C82800002C
:1001F0009680004434080001CC800000301C0000D0
:100200000E8801BB94800004000000008000019D66
:10021000342000010E8801BC9880010B0000000012
:10022000950001B8000000000E8801BE9480000512
:1002300000000000CD8000D3800000180000000006
:100240000E8801BD9480000400000000CC0000D3A3
:10025000800000180E8801C1988000B93420000683
:100260000E8801C29480000800000000C828000920
:10027000342801DFCD9C00C3CD9C00D5988000B010
:10028000342000030E8801C39880011C3420000430
:100290000E8801C0988000AA342000070E8801B79C
:1002A00098800116342000040E8801B8988001134C
:1002B000342000040E8801B9988001103420000415
:1002C0000E8801B49880010D34200004168801B412
:1002D0009880018C168801B79880018A1E8801C019
:1002E00098800188000000000E8801BA9480010304
:1002F00034200004342000028000014F0000000080
:10030000C82800029680001434080001CC80000246
:10031000228801DC1A8C01DD7C8C800B988000091E
:1003200000000000228801C81A8C01DB7C8C800B45
:1003300098800007301C0000800002400000000090
:10034000341C0001C81000CBC9EC00D9800001BEEC
:1003500034200004C82800019680000B0000000033
:10036000301C000034080001CC80000195000165BC
:100370000E8801E8988000E13420000480000240EB
:1003800000000000C828000396800008000000005C
:100390000E8C01E598C0011A34080001CC800003DE
:1003A0008000024000000000C8280004341C000146
:1003B000C81000CB9680FF2EC9EC00D9340800018C
:1003C000CC8000040E8801F09480000A0000000038
:1003D0008400026C00000000C828000A342801F0E4
:1003E000CD9C00C3CD9C00D59880005534200003DF
:1003F0000E8801E298800052342000020E8801F637
:100400009880004F342000060E8801F39880009AEF
:10041000342000010E8801E1988000B8000000003F
:100420008000024000000000CC1C00C3CC0000157E
:10043000840001313420000399C000040000000052
:100440008400034125B8001FC9F800C99B80000F34
:1004500000000000CAF8000033B800019B80006370
:1004600000000000C9F400D5CC1C00D5C9C800DBD1
:10047000CACC00067C8C8002974002060000000077
:1004800080000304CC8000C3CAC80000308800107C
:100490009880005400000000CC1C00C999C00004E2
:1004A000CC1C00168400023C343800078400023C57
:1004B0003438000199C001D20000000080000324FC
:1004C00000000000840002517F03000BCB38004184
:1004D00067B8000825C80005348800807C82C00CFD
:1004E000CEDC00D9CB100042950001EA00000000EC
:1004F000CD1C00D17D18C001CCDC00CF7C00C00039
:1005000004CC0007091000019900FFFE0000000064
:10051000CB920000CD08000008CC000194C000067A
:100520000000000047B80004048800018000014476
:100530000000000088000000000000008400034468
:100540000000000099C0000800000000C0302192A7
:10055000CB09000007740008CCB6000C0774002C0F
:10056000CCB6000C8400028900000000800001610C
:10057000000000008400034400000000800001DB54
:100580000000000099C00006CD9C00D584000290B8
:1005900000000000800001DB00000000840002ACCD
:1005A000000000008400027100000000800001DBF8
:1005B00000000000CD9C00C199C0000600000000B2
:1005C000C03021B9CDB100008000001B0000000048
:1005D000C0303418CDB100008000001B00000000C6
:1005E0008000032434200008CD8000CBCAE400063C
:1005F000CE5C00DECE5C00DB2A640004CE40000B43
:10060000840002517F03000BCE70004DCB380044B4
:1006100027B80008CF9C00D76BB80020CF9C00C63D
:1006200099C0FE90000000008400034134380000AF
:1006300099C0FE8C00000000C030235580000018D7
:10064000CE710000C9F800D59B80000400000000B6
:100650008000001800000000CC1C00D599C0FE816D
:10066000000000008400034125B8001F800000182E
:1006700000000000CD9C00D599C0000400000000DF
:1006800084000341343800009500FE79000000002A
:100690008000015D000000002B9C001F2BB80010A3
:1006A00033A800FFCC0000CC800001BE3420000441
:1006B000C9EC00D9C81000CBC9F80009CC1C00D384
:1006C00099C00008000000008400029000000000B3
:1006D000840002710000000080000327CD9C00D53B
:1006E000840002AC000000008400027100000000E1
:1006F00080000327CD9C00D5C8080040308800202A
:100700009480008000000000C9EC00D9C9F800CD39
:10071000C9C800C4648800207F8B802C668C0010C0
:100720007CE0C00CCCFA0004840002F00000000061
:10073000C8080040308800109880002400000000A5
:1007400099C0000600000000840002900000000034
:10075000800001D800000000840002AC000000000E
:10076000CD9C00D5800001EB00000000C9C800C38B
:100770009880FF2E0000000084000271000000003D
:10078000C9F800C19B80000A00000000C9F800CF32
:1007900097800007000000000BB80001CF9C00CF3D
:1007A00006EC0007800003040000000084000271D2
:1007B00000000000CD9C00D58400028900000000EC
:1007C000800003240000000099C000053408001FC9
:1007D00034380003800001F9CF9C00163438000142
:1007E000CF9C0016988000000888000184000284D5
:1007F000000000008000032400000000C9CC00D5E8
:1008000094C000080000000084000248340C00017D
:1008100084000263343800009B80000B000000005D
:1008200084000248340C00008400034125B8001FF6
:10083000C03001C0CB3900003438000080000018FF
:10084000CF80000334380001CF800003C81000CBF4
:10085000C03001C1CB3900002BB800049B80FFFEE3
:1008600000000000CC0000C800000000C808001A0A
:100870009480FDFFCD8000DD000000008400026157
:1008800034380002CC3100008400026334380001A7
:10089000CD8000C884000248340C0000800000189D
:1008A00000000000C03005157F1F0020CAF80005B9
:1008B000CFB10000C03005507F1F0020CAF80002F1
:1008C000CFB10000C03005587F1F0020CAF80003D8
:1008D000CFB10000C03005607F1F0020CAF80004BF
:1008E000CFB10000CB3900008800000000000000FC
:1008F0008400026700000000880000000000000083
:100900008400024400000000800000180000000085
:1009100032A800FFCE80000C88000000000000001C
:10092000C0300390CB390000C00BFFFE7F8B800BE3
:1009300024CC00107F8F800CCFB100008800000015
:10094000CB39000095C000030000000007300028EC
:100950008800000000000000880000000000000087
:10096000CFB10000CD80000ECB39000033B80010AD
:100970002BB800049780FFFD0000000088000000F5
:100980000000000080000258C03001C1C0302003C8
:10099000CFB1000088000000CB390000CD80000EF0
:1009A0007C1C800CC030051D800002587F1F002079
:1009B000C830004037300002CF00004088000000FF
:1009C00000000000C8300040333003FDCF0000407D
:1009D0008800000000000000CF9C0016CD80000EB3
:1009E000C9F000187F3880029480FFFE00000000EC
:1009F0008800000000000000CFB10000CB390000EB
:100A00003408001F9880000008880001CC1C0016E4
:100A1000C9F0001B9700FFFF0000000088000000E5
:100A20000000000099C00004CC1C00C18000028EB0
:100A3000C03021B9C030341888000000CC3100002B
:100A4000C0302356C0080100C03AFF007F8B800CE5
:100A5000CFB10000CB3900008400027634380003A7
:100A6000C03020088400027E3438FFFFC0302008E8
:100A7000CC310000CB390000C03003988400027EE6
:100A800034380100CC000056C0300398CC3100004F
:100A9000CB090000C0302356C0080100CCB10000D3
:100AA000CB390000C03021B688000000CC310000F6
:100AB000840002763438000134380001C0300398D5
:100AC0008400027E27B80014CC000057C030039881
:100AD000CC31000088000000CB090000CC000050A1
:100AE000C9C800D7C9CC00C664CC00207C8C802C3F
:100AF000840002517F03000BCB0C004D24CC00047A
:100B00007CE0C00CCCCA0000C80C004ECCCA00046B
:100B1000C80C004FCCCA0008840002517F03000BB0
:100B2000CB0C004664CC0020CB1400457D4D402CFE
:100B3000CB0C0047CB10004304CC00017CD1000754
:100B40009900000A000000004488000CCC9C00D7EB
:100B500068880020CC9C00C6CCF00047CCD60000B2
:100B6000800002E100000000CB0800442488000857
:100B7000CC9C00D768880020CC9C00C6CC300047B5
:100B80007C00C00CCB14004665540020CB08004507
:100B90007C94802CCCCA0000840002EA0000000093
:100BA0008800000000000000C838000D0BB80001EC
:100BB0009B80FFFE00000000880000000000000095
:100BC0008400026C000000008800000000000000AB
:100BD00099C0000B00000000C0303041CB3900004C
:100BE000C00BFEFF7F88C00BCCF10000CB0D0000D6
:100BF000CFB100008000032400000000C0303400AA
:100C0000CB390000CFB100008000032400000000B9
:100C10008400034125B8001FCAF8000167B8000C22
:100C2000CB8E000434C800047C8CC002CC1C00D5E0
:100C300098C0001500000000840002290000000098
:100C40008400023C3438000100000000C80800C3E2
:100C50009880FFE0CC0000C3C9C800C194800006A2
:100C600000000000840002890000000080000324CE
:100C700000000000840003610000000080000324E5
:100C80000000000065CC001F7CC8800CCC8000CC2C
:100C9000840002B70000000084000244000000004D
:100CA000C9F800D597800007C9E400DE32080001CA
:100CB000988000050000000080000331CE5C00DB5E
:100CC000CAE400062A640004CE40000B84000251EE
:100CD0007F03000BCE70004DCACC000124CC000C69
:100CE000CCDC00CD68CC0020CCDC00C4CEDC00D94C
:100CF00099C0FCDC00000000C030235580000018C3
:100D0000CE710000C03001C088000000CFB10000EB
:100D1000C9F800CDC9C800C4648800207F8B802C2E
:100D200007B40000C030FFFFCB8E0004340800047D
:100D300030CC000F7CC8C00298C000110000000039
:100D4000CB8A000C47B800047CB0C00B94C0000CE8
:100D500000000000C8D10000CD3A000C07B8000424
:100D6000288800109480000600000000C891000050
:100D7000CD3A000C8000035007B800048800000042
:100D800000000000CAF00006CF1C00DBCC1C00D520
:100D900095C0000600000000C0303400CC310000D7
:100DA0008000037500000000C80800009480000364
:100DB000340C0001CCC00000C030304125B8001F09
:100DC000CFB10000C030218EC00A0001348800FF7E
:100DD000CCB10000CAF8000167B8000CC030FFFFBA
:100DE000CB8A0004CB8A000C47B800047CB0C00B4F
:100DF00094C0000ACB92000CCD0D000047B800044F
:100E00002888001094800005CB92000CCD090000CA
:100E10008000037947B8000488000000000000004B
:100E200000000000000000000000000000000000C2
:100E300000000000000000000000000000000000B2
:100E400000000000000000000000000000000000A2
:100E50000000000000000000000000000000000092
:100E60000000000000000000000000000000000082
:100E70000000000000000000000000000000000072
:100E80000000000000000000000000000000000062
:100E90000000000000000000000000000000000052
:100EA0000000000000000000000000000000000042
:100EB0000000000000000000000000000000000032
:100EC0000000000000000000000000000000000022
:100ED0000000000000000000000000000000000012
:100EE0000000000000000000000000000000000002
:100EF00000000000000000000000000000000000F2
:100F000000000000000000000000000000000000E1
:100F100000000000000000000000000000000000D1
:100F200000000000000000000000000000000000C1
:100F300000000000000000000000000000000000B1
:100F400000000000000000000000000000000000A1
:100F50000000000000000000000000000000000091
:100F60000000000000000000000000000000000081
:100F70000000000000000000000000000000000071
:100F80000000000000000000000000000000000061
:100F90000000000000000000000000000000000051
:100FA0000000000000000000000000000000000041
:100FB0000000000000000000000000000000000031
:100FC0000000000000000000000000000000000021
:100FD0000000000000000000000000000000000011
:100FE0000000000000000000000000000000000001
:100FF00000000000000000000000000000000000F1
:00000001FF