:100000002038001023B80000CF800012CC00020579
:1000100004180001CD80000ECD800203CC00020246
:10002000CD800201CC00000BCC000208CC00020BFA
:10003000CC000209CC00020CCC000207CC00020666
:10004000CD800200C80C00401CE000802A20008007
:100050001CE401002A640100960000060000000074
:100060009A400004000000008400013000000000FD
:100070008000005C00000000CC00000ECC00000EF0
:10008000C8100202202801C3201C0000C810020270
:10009000C80802057F8B8007C808020194800030E1
:1000A000000000008000006F00000000C9CC0203C7
:1000B00094C0001700000000840000BB200C000169
:1000C000840000CF2038000097800011200C000D24
:1000D000C0302009CCF10000C030200AC03418180C
:1000E0001374000823741818CB0D00007CF4C006AC
:1000F000C808001A98800006201C000194C0FFFB6D
:1001000000000000800000537DC1C006840000E9AB
:1001100011B8001F840000CF20380001840000BB0C
:10012000200C0000C03001C0CB3900002038000096
:1001300095C0FFD3CF8000037DC1C006840000E9D5
:10014000203800008000001FCF800003203800010D
:10015000CF800003C8100202CC000201C808001AB8
:100160009480001700000000CD80000E0000000009
:10017000840000E911B8001F840000CD203800027F
:10018000CC310000C8080200988000040000000084
:100190008400020800000000840000CF2038000125
:1001A000CD800201840000BB200C0000840000E927
:1001B000203800008000001F00000000C8380056F2
:1001C0009B80007C201C0000C83800579B80007971
:1001D000201C0001C83800471FB8000197800003A9
:1001E000C0380010CF800047201C0000C808020162
:1001F0009480001200000000C82800009680000FC4
:1002000020080001CD80000ECC8000001C1C0000E6
:100210002A8801BB9480000400000000800000E4F4
:10022000000000002A8801BC9880004900000000FE
:100230009500002700000000C828000296800006F4
:1002400020080001CD80000ECC800002800000B3A9
:1002500000000000C8280001968000070000000090
:1002600020080001CD80000ECC800001800000B38A
:1002700000000000C82800039680000D0000000068
:10028000CD80000E2A8C01E598C0FF89200800016E
:100290002A8C01E47CE0C00698C000F02008000130
:1002A000CC800003800000B300000000C8280004D8
:1002B0009680FF730000000020080001CD80000E32
:1002C000CC800004800000B300000000840000B770
:1002D000000000008000001F000000001EA800FFBA
:1002E000CE80000C8800000000000000C0300390A9
:1002F000CB390000C00BFFFE7F8B800610CC0010B6
:100300007F8F8007CFB1000088000000CB3900004C
:10031000CFB10000CD80000ECB39000017B800042B
:100320001FB8000F9780FFFD00000000880000004C
:1003300000000000800000C4C03001C1C0302003B4
:10034000CFB1000088000000CB390000C838020699
:100350009B800006000000009A400004000000009E
:100360008400024D00000000C9F802039B800004D5
:10037000000000008000001F00000000CC1C0203F1
:10038000840000E911B8001F8000001F0000000079
:10039000CD9C0203840000E9203800009500FF3A5C
:1003A00000000000C03001C088000000CFB1000094
:1003B00099C0000BC830004023300002CF0000403D
:1003C0008400010120380003C83000401F3003FDC5
:1003D000CF0000408000006FCC000056C8300040C5
:1003E00023300040CF00004084000112203800017B
:1003F000C83000401F3003BFCF0000408000006FB6
:10040000CC0000568400011D00000000C030200810
:10041000840001252038FFFFC0302008CC310000C7
:10042000CB390000C030039884000125203801003A
:10043000C0300398CC310000CB090000C03021B699
:1004400088000000CC3100008400011D0000000085
:1004500020380001C03003988400012513B800142F
:10046000CC000057C0300398CC3100008800000059
:10047000CB090000CF9C0016CD80000EC9F00018FB
:100480007F38800C9480FFFE000000008800000090
:1004900000000000CFB10000CB3900002008001F91
:1004A0009880000008880001CC1C0016C9F0001BD1
:1004B0009700FFFF0000000088000000000000001F
:1004C000C838004453B8000820080210C030FFFFAD
:1004D000CB8E00007CF1400695400009CCC800009E
:1004E00004880001CC08000004880001CC0800004A
:1004F000048800018000013447B80004CC80020762
:100500008800000000000000C030FFFFC88C000021
:100510007CF100069500000F04880001C915000059
:10052000CD48000014CC00107CF1000695000009B5
:1005300004880001C9150000CD480000C82C001A2D
:100540009AC000047C2DC00780000143048800018C
:100550008800000000000000C030FFFFC88E0000CF
:100560007CF100069500000F44880004C9150000C6
:10057000CD4A000014CC00107CF100069500000963
:1005800044880004C9150000CD4A0000C82C001A98
:100590009AC000047C2DC0078000015744880004E5
:1005A0008800000000000000C010200BC0140000F4
:1005B000C016C000CD510000C9150000C030FFFFBB
:1005C000C88C00007CF100069500000C0488000136
:1005D000C8940000CD51000014CC00107CF100063E
:1005E0009500000604880001C8940000CD51000069
:1005F00080000170048800018800000000000000F5
:10060000C010200BC0140000C016C000CD51000067
:10061000C9150000C030FFFFC88E00007CF1000645
:100620009500000C44880004C8960000CD510000DD
:1006300014CC00107CF100069500000644880004EC
:10064000C8960000CD510000800001864488000457
:100650008800000000000000C9CC020394C00068BC
:1006600020080000C00C21B6C8D10000C00A140048
:100670007D0900069900006220080000840000CF78
:10068000203800029780005E200800009A40000693
:10069000000000008400014220080210800001AD2B
:1006A00000000000C808004450880008840001567B
:1006B0000000000099C0005220080000840000CF14
:1006C000203800009780004E20080000CC00020077
:1006D000CC000201C030218D200C0001CCF10000C3
:1006E000C030218E20CC3FFFCCF10000C03021B6BD
:1006F000C00A1400CCB10000C80800401C880200E9
:100700009880003CC0300047CB1100001D0C040055
:1007100094C0000700000000C80C001A94C0FFFB42
:1007200000000000800001FF000000001D0C4000E0
:1007300094C00030C0303DAFCB0D00001CCC000297
:1007400094C0002CC0303D34CB0D000098C0002C6C
:100750000000000000000000C80802080488000132
:10076000CC800208C0303D35CC310000C0303D3176
:10077000CDB10000C0303D34CB0D00001CC80001DD
:10078000988000101CC8000298800007C80C001A4E
:1007900094C0FFFA00000000C81002090510000113
:1007A000CD000209C810020B05100001CD00020B9C
:1007B000C0303D35CDB10000800001FF20080000B1
:1007C00020080001CC800003C0300047C008200092
:1007D000CB0D00007CC8C00698C0FFFE00000000E2
:1007E000C0303D35CDB100008000001F000000008A
:1007F000200800018000001FCC800003840000E975
:1008000011B8001F840000CF20380001CC80000305
:10081000840000E9203800008000001F0000000074
:10082000840000E911B8001F840000CF20380002C6
:10083000C0302008C008FFFECCB10000CB0D000086
:10084000CC310000CB0D00009A40000600000000F3
:100850008400016A200802108000021B00000000D2
:10086000C80800448400018050880008C838004847
:100870009780002AC83802069B8000040000000010
:100880008400024D00000000C83800471FB8000176
:1008900097800003C0380010CF800047C838004759
:1008A0001FB800109B80FFFE00000000840002A71C
:1008B00000000000840000CF203800019A400006AC
:1008C000C838004884000284C83802078000023714
:1008D000000000008400026A53B80008C030A1F490
:1008E00023080400CC09000023080800CC090000FC
:1008F00023080C00CC09000023081000CC090000DC
:1009000023081400CC09000023081800CC090000BB
:1009100023081C00CC090000C00C21B6CC0D00003F
:10092000CD800200840000E920380000880000002B
:1009300000000000C83800489B80000453B800083D
:100940008800000000000000C808020704880001B9
:10095000CB8E0000CCC8000047B80004048800011A
:10096000CB8E0000CCC8000047B80004048800010A
:10097000CB8E0000CCC8000047B8000404880001FA
:10098000CB8E0000CCC8000047B8000404880001EA
:10099000CB8E00001CD000019500FFF3CCC80000F6
:1009A00088000000CCC00206CB8A0000C00C218168
:1009B000CC8D0000C00C2183CC0D0000C0280004A9
:1009C00047B80004CB8E00001CF400019B40000DD2
:1009D00047B80004CB92000047B80004CB96000053
:1009E000840002A00AA800019A80FFF6000000001F
:1009F000840002A7C00821A080000270C028000463
:100A0000840002A700000000880000000000000031
:100A1000C838020707B80001CB880000C00C21814C
:100A2000CC8D0000C00C2183CC0D0000C028000438
:100A300007B80001CB8C00001CF400019B40000DA6
:100A400007B80001CB90000007B80001CB9400006C
:100A5000840002A00AA800019A80FFF600000000AE
:100A6000840002A7C00821A08000028CC0280004D6
:100A7000840002A7000000008800000000000000C1
:100A8000C0082180CCC90000C0082182CD09000027
:100A9000C008218488000000CD490000C00821A0C2
:100AA000C88D000014CC00161CCC000198C0FFFDBE
:100AB00000000000880000000000000000000000AE
:100AC0000000000000000000000000000000000026
:100AD0000000000000000000000000000000000016
:100AE0000000000000000000000000000000000006
:100AF00000000000000000000000000000000000F6
:100B000000000000000000000000000000000000E5
:100B100000000000000000000000000000000000D5
:100B200000000000000000000000000000000000C5
:100B300000000000000000000000000000000000B5
:100B400000000000000000000000000000000000A5
:100B50000000000000000000000000000000000095
:100B60000000000000000000000000000000000085
:100B70000000000000000000000000000000000075
:100B80000000000000000000000000000000000065
:100B90000000000000000000000000000000000055
:100BA0000000000000000000000000000000000045
:100BB0000000000000000000000000000000000035
:100BC0000000000000000000000000000000000025
:100BD0000000000000000000000000000000000015
:100BE0000000000000000000000000000000000005
:100BF00000000000000000000000000000000000F5
:00000001FF