:100000003A313030303030303033413331333033C7
:1000100030333033303330333033303330333033C8
:1000200030333033323331343543440D0A3A3130D2
:1000300030303130303033383330333033303330A8
:10004000333033303336333833303330333033308A
:1000500033303335343442310D0A3A3130303032B6
:100060003030303338333033303330333033323371
:10007000323335333833323338304430413341331F
:1000800031333045420D0A3A313030303330303080
:100090003330333033313330333033303330333047
:1000A0003330333033333336343533343330333025
:1000B00039440D0A3A313030303430303033303357
:1000C0003033323338333333383330333033303303
:1000D0003033303330333733303330333039340D1D
:1000E0000A3A313030303530303033303330333518
:1000F00034363332333033373337304430413341A1
:100100003331333033303330333242310D0A3A3108
:1001100030303036303030333033303330333033CA
:1001200030333033303338333534323334333033A3
:100130003033303330333536380D0A3A31303030E1
:10014000373030303436333933383330333033307E
:10015000333033303330333934333330333033307A
:100160003330343532380D0A3A31303030383030AF
:100170003033353335333034333436304430413333
:100180004133313330333033303333333033303342
:100190003037380D0A3A3130303039303030333082
:1001A0003330333033303339343234313433333025
:1001B0003330333033303435333534363330463101
:1001C0000D0A3A3130303041303030333033303353
:1001D00030333033303330333833383330333033F7
:1001E000303331333833313431333032350D0A3A2C
:1001F00031303030423030303436343130443041B8
:1002000033413331333033303330333433303330C0
:10021000333033303330333035330D0A3A31303008
:10022000304330303033303334333333343334339A
:100230003033303330333133383332333333303398
:10024000303330333031330D0A3A313030304430CE
:10025000303033303330333033383433333033307D
:100260003330333134333335333733383431343357
:10027000304444430D0A3A3130303045303030306C
:10028000413341333133303330333033353330332E
:100290003033303330333033303330343333353040
:1002A000450D0A3A31303030463030303339333052
:1002B0003330333033303331343333363330333813
:1002C00033303330333033303331333144330D0A4C
:1002D0003A313030313030303034323338333033FB
:1002E00030333033323338343234313330333833DF
:1002F00036304430413341333144380D0A3A3130DD
:1003000030313130303033303330333033363330D6
:1003100033303330333033303330333033303330C5
:1003200033303334333044350D0A3A3130303132E2
:100330003030303330333033323339343433363392
:100340003033303332333033363330333034343487
:1003500033333037420D0A3A3130303133303030B8
:100360003330333033303330333033303331343172
:10037000333830443041334133313330333033302C
:1003800045330D0A3A313030313430303033373381
:10039000303330333033303333333033363331333B
:1003A0003033303330333033323330333039430D40
:1003B0000A3A313030313530303033303330333049
:1003C0003330333033313330333633303330343409
:1003D0003338333033303330333037430D0A3A312A
:1003E00030303136303030333033303330333033F7
:1003F00038333630443041334133313330333033A6
:100400003033383330333042370D0A3A31303031FF
:1004100037303030333033303333333033363330BA
:1004200033323330333033303330333033333330AF
:100430003332333036460D0A3A31303031383030CD
:10044000303330333033323330333633303330348B
:10045000343433333033303330333033303330337C
:100460003034300D0A3A31303031393030303330B9
:100470003337343330443041334133313330333028
:10048000333033393330333033303330333137393D
:100490000D0A3A3130303141303030333033363379
:1004A0003033303432333833303330333033303329
:1004B000303330333033303330333132450D0A3A54
:1004C0003130303142303030333033363330333006
:1004D00034333338333033303330333033303330F8
:1004E000333033303434333230380D0A3A3130302F
:1004F00031433030303044304133413331333033A5
:1005000030333034313330333033303330333233CF
:10051000303336333035340D0A3A313030314430EF
:1005200030303331333634333330333033303330AB
:10053000333033303330333033303331333033369C
:10054000333046450D0A3A313030314530303033A2
:10055000303432343333303330333033303330337C
:10056000303330333033313338304430413341323B
:10057000300D0A3A3130303146303030333133309B
:10058000333033303432333033303330333033314F
:1005900033303336333033303433343342460D0A5C
:1005A0003A31303032303030303330333033303332
:1005B0003033303330333033303330333233303321
:1005C00036333033313337333044450D0A3A313026
:1005D0003032313030303330333033303330333009
:1005E00033303330333034363334304430413341B8
:1005F00033313330333030320D0A3A313030323229
:1006000030303033303433333033303330333033D1
:1006100032333034343330333033343334333033B3
:1006200030333039440D0A3A3130303233303030E3
:10063000333033303330333333323330333333309A
:100640003434333033303334343333303330333085
:1006500038420D0A3A3130303234303030333433AE
:100660003033323330333333343336304430413344
:100670004133313330333033303434333043350D5C
:100680000A3A313030323530303033303330333075
:100690003334333034343330333033353433333030
:1006A0003330333033303330333036450D0A3A315E
:1006B000303032363030303330333433303333331C
:1006C0003034343330333033383433333033303301
:1006D0003133313330333235340D0A3A3130303240
:1006E00037303030333033373436333930443041BB
:1006F00033413331333033303330343533303330CA
:100700003330333038310D0A3A313030323830300E
:1007100030333233303434333033313335343333B0
:1007200030333033303330333033303330333133B0
:100730003033450D0A3A31303032393030303333CE
:100740003330343433303331333633343330333081
:10075000333033323330333233313338333132455F
:100760000D0A3A313030324130303033323044309B
:100770004133413331333033303330343633303337
:10078000303330333033323330343435450D0A3A78
:100790003130303242303030333033323330333432
:1007A0003330333033303330333033303330333130
:1007B000333033333330343432300D0A3A31303061
:1007C00032433030303330333233303433333033FC
:1007D00030333033333330333233313431343134F6
:1007E000343044304132360D0A3A31303032443000
:1007F00030303341333133303330333133303330D1
:1008000033303330333033333330343433303332C6
:10081000333246370D0A3A313030324530303033DA
:1008200030333033303330333233303332333134AA
:100830003433303334333034343330333233384478
:10084000330D0A3A313030324630303033303330C5
:100850003330333033303330333033313332343676
:1008600033373044304133413331333031430D0A73
:100870003A3130303330303030333033313331335C
:100880003033303330333033333330343433303348
:1008900033333033303330333044310D0A3A313072
:1008A0003033313030303331333833303332333129
:1008B0003436333033343330343433303333333607
:1008C00033303330333039410D0A3A31303033323E
:1008D00030303033303330333033303330343333FF
:1008E00031333330443041334133313330333033BB
:1008F00031333246310D0A3A313030333330303013
:1009000033303330333033303334333034343334C2
:1009100033303330333033303330333033303330BF
:1009200041310D0A3A3130303334303030343133E4
:100930003033303330333333303434333033303397
:100940003033343330333033303436333036420D95
:100950000A3A313030333530303033323333333795
:100960003331333830443041334133313330333035
:100970003331333333303330333043320D0A3A318D
:100980003030333630303033303332333034343348
:100990003033313331333433303330333033303339
:1009A0003033303330343435440D0A3A313030335B
:1009B0003730303033303332333034343330333116
:1009C0003331333833303330333033303330333006
:1009D0003332343434370D0A3A3130303338303032
:1009E00030333333393044304133413331333033B2
:1009F00030333133343330333033303330333233D8
:100A00003039380D0A3A31303033393030303434FF
:100A100033303331333133343330333033303330B8
:100A20003330333033313434333033323330324394
:100A30000D0A3A31303033413030303434333033D2
:100A40003133313338333033303330333033303384
:100A5000303333343433303339304433320D0A3A9F
:100A60003130303342303030304133413331333044
:100A70003330333133353330333033303330333256
:100A8000333034343330333133420D0A3A3130307D
:100A90003343303030333133343330333033303329
:100AA0003033303330333434343330333233303422
:100AB000343330333146390D0A3A31303033443033
:100AC0003030333133383330333033303330333008
:100AD00033303336343433393339304430413341B1
:100AE000333132360D0A3A3130303345303030331D
:100AF00030333033313336333033303330333033D7
:100B000032333034343330333133313334333045AE
:100B1000410D0A3A313030334630303033303330E3
:100B200033303330333033353434333033323330A1
:100B300034343330333133313338333043340D0AC6
:100B40003A3130303430303030333033303330338A
:100B50003033303337343433363339304430413343
:100B600041333133303330333146460D0A3A313078
:100B7000303431303030333733303330333033305A
:100B80003333333133303331333033303330333048
:100B900033303330333343440D0A3A31303034325A
:100BA0003030303330333233343336333033323322
:100BB0003133303331333033353330333033303316
:100BC00030333042370D0A3A313030343330303040
:100BD00033303330333033313339343530443041CE
:100BE00033413331333033303331333833303330D2
:100BF00044320D0A3A31303034343030303330330F
:100C000030333733313330333133313330333033C2
:100C10003033303331333033303332333439420DC3
:100C20000A3A3130303435303030333933303338BC
:100C30003331333033313331333433303330333095
:100C40003330333033303330333038340D0A3A31C7
:100C5000303034363030303338333734323044305B
:100C6000413341333133303330333133393330333F
:100C70003033303330333739380D0A3A313030348D
:100C80003730303033313330333133313336333042
:100C9000333033303331333033303332333533392B
:100CA0003330333835410D0A3A3130303438303052
:100CB0003033313330333133313431333033303317
:100CC00030333033303330333033313338333834FA
:100CD0003233350D0A3A3130303439303030304427
:100CE00030413341333133303330333134313330C9
:100CF00033303330333033373331333033313746B9
:100D00000D0A3A31303034413030303338333033FB
:100D100030333033323330333033303332333633B1
:100D2000393330333433313330333432380D0A3AD7
:100D3000313030344230303034333330333033308C
:100D40003330333033303330333133303330333585
:100D5000333230443041334136300D0A3A3130308D
:100D60003443303030333133303330333134323355
:100D70003033303330333033323331333033343354
:100D8000303332333830370D0A3A31303034443072
:100D9000303033303330333033303330333033313D
:100DA0003330333033323331333033343330333420
:100DB000333430430D0A3A3130303445303030333B
:100DC00030333033303330333334363436343634F2
:100DD00035333130443041334133313330333045B2
:100DE000460D0A3A31303034463030303331343306
:100DF00033303330333033303332333133303334D4
:100E000033303335333833303330333244320D0AF4
:100E10003A313030353030303033383330333033AE
:100E200030333033303332333133303334333033A3
:100E300038333433303330333843380D0A3A3130B5
:100E40003035313030303334333933323334343178
:100E50003332333730443041334133313330333040
:100E600033313434333044370D0A3A31303035328F
:100E7000303030333033303330333233313330335A
:100E80003433303335333833303330333033303339
:100E900030333042370D0A3A31303035333030306C
:100EA0003330333033303333333034333332333021
:100EB000333033383330333033303333333033340B
:100EC00039340D0A3A31303035343030303336333E
:100ED00039343334353044304133413331333033B6
:100EE0003033313435333033303330333039430DF0
:100EF0000A3A3130303535303030333333303433F3
:100F000033323330333134333330333033303334BE
:100F10003330333433363433333034450D0A3A31D9
:100F2000303035363030303333333034333332339E
:100F3000303333333833303330333133313330338C
:100F40003433373330333635350D0A3A31303035B6
:100F50003730303033343044304133413331333043
:100F6000333033313436333033303330333033345D
:100F70003330343338370D0A3A3130303538303089
:100F8000303332333033373433333033303330333C
:100F9000303330333033343436333033333330342A
:100FA0003331460D0A3A3130303539303030333252
:100FB000333134323338333033303331333133300B
:100FC00033343338333133383336304430413641BB
:100FD0000D0A3A313030354130303033413331331E
:100FE00030333033323330333033303330333033E7
:100FF000343330343333323331343630450D0A3AFA
:1010000031303035423030303433333033303330B8
:1010100033303330333033303436333033333330AE
:10102000343333323332333346350D0A3A313030CC
:10103000354330303033383330333033303334337A
:101040003033343339333234313436304430413351
:10105000413331333032370D0A3A31303035443094
:101060003030333033323331333033303330333068
:101070003331333034333332333233343338333043
:10108000333046340D0A3A31303035453030303364
:101090003033303330333033303330333033313337
:1010A0003034333332333233343433333033304407
:1010B000430D0A3A3130303546303030333033303A
:1010C00033303330333033303435343330443041DF
:1010D00033413331333033303332333230440D0A1D
:1010E0003A313030363030303033303330333033E3
:1010F00030333133303433333233323335333033CA
:1011000030333033303330333043440D0A3A3130EA
:1011100030363130303033303330333033303331B8
:101120003330343333323332333533343330333096
:1011300033303330333042390D0A3A3130303632C1
:101140003030303330333033303433343330443074
:10115000413341333133303330333233333330334F
:1011600030333044440D0A3A313030363330303089
:101170003330333133303433333233323335333841
:101180003330333033303330333033303330333047
:1011900039350D0A3A31303036343030303330336F
:1011A0003133303433333233323335343333303315
:1011B0003033303330333033303330333037410D28
:1011C0000A3A31303036353030303431343330440F
:1011D00030413341333133303330333233343330D1
:1011E0003330333033303331333041440D0A3A3108
:1011F00030303636303030343333323332333633C6
:1012000030333033303330333033303330333033C6
:101210003033303331333036430D0A3A31303036E3
:101220003730303034333332333233363334333093
:10123000333033303330333033303330333033388E
:101240003433304436310D0A3A31303036383030AC
:10125000303041334133313330333033323335334F
:10126000303330333033303331333034333332335F
:101270003236360D0A3A3130303639303030333686
:10128000333833303330333033303330333033303E
:101290003330333033313330343333323332333429
:1012A0000D0A3A3130303641303030333634333352
:1012B0003033303330333033303330333033303316
:1012C000363433304430413341333135360D0A3A08
:1012D00031303036423030303330333033323336E1
:1012E00033303330333033303331333034333332DF
:1012F000333233373330333031330D0A3A31303013
:1013000036433030303330333033303330333033B2
:1013100030333033303331333034333332333233AC
:10132000373334333030370D0A3A313030364430C9
:101330003030333033303330333033303330333098
:10134000333434333044304133413331333033304C
:10135000333233460D0A3A3130303645303030338F
:101360003733303330333033303331333034333359
:101370003233323337333833303330333033304431
:10138000430D0A3A31303036463030303330333066
:10139000333033303330333133303433333233322C
:1013A00033373433333033303330333043380D0A4E
:1013B0003A3130303730303030333033303330330F
:1013C00030333234333044304133413331333033CE
:1013D00030333233383330333030380D0A3A31302D
:1013E00030373130303033303330343133303330E4
:1013F00033303330333033313330333033303330D4
:1014000033303330333043370D0A3A3130303732EE
:1014100030303033313330333233303433333233AE
:1014200030333033303330333033303330333033A4
:1014300033343539390D0A3A3130303733303030C2
:10144000333833343339304430413341333133303E
:101450003330333233393330333033303330343167
:1014600043360D0A3A313030373430303033303390
:101470003033303330333033313330333033303353
:101480003033303330333033323330333241340D54
:101490000A3A31303037353030303330343333324C
:1014A0003330333033303330333033303330333024
:1014B0003330333034313331333936390D0A3A3140
:1014C00030303736303030304430413341333133CF
:1014D00030333033323431333033303330333034EF
:1014E0003133303330333041330D0A3A3130303715
:1014F00037303030333033303331333033303330D2
:1015000033303330333033303334333033323330BD
:101510003433333235440D0A3A31303037383030D5
:1015200030333033303330333033303330333033A3
:101530003033303330333133313330304430413372
:101540004141360D0A3A313030373930303033319D
:10155000333033303332343233303330333033306E
:10156000333533323330333033343330333033394F
:101570000D0A3A3130303741303030333033303388
:101580003833353330333033303330333033363330
:10159000323330333033373338333032350D0A3A63
:1015A0003130303742303030333033303331333014
:1015B00033303334333933363333333930443041D5
:1015C000334133313330333035370D0A3A3130302F
:1015D00037433030303332343333303330333033D9
:1015E00030333433323332333033303330333033DB
:1015F000303330333030430D0A3A313030374430F5
:1016000030303330333433303330333033303334BD
:1016100033323333333233343330333033303330A7
:10162000333030360D0A3A313030374530303033D0
:101630003033303330333433303333343430443078
:10164000413341333133303330333234343330315A
:10165000360D0A3A3130303746303030333033309F
:101660003330333333323332333133323335333053
:1016700033303330333133303330333445350D0A82
:101680003A3130303830303030333933383330332A
:101690003433323332343233313334333033303322
:1016A00030333033303330333042380D0A3A313052
:1016B00030383130303033323330343233343044F8
:1016C00030413341333133303330333234353330DA
:1016D00033303330333045370D0A3A313030383219
:1016E00030303033343332333234333338333033D1
:1016F00030333033303330333033303330333033D2
:1017000036333039460D0A3A3130303833303030E4
:101710003333333233323433333833313338333095
:101720003330333033343330333434313338333689
:1017300036360D0A3A3130303834303030333530C7
:101740004430413341333133303330333234363344
:101750003033303330333033343332333243310D7E
:101760000A3A313030383530303034333338333270
:101770003338333033303330333033303330333049
:101780003433333033333332333235390D0A3A316F
:101790003030383630303034333338333533383313
:1017A0003033303330333433303334343134333412
:1017B0003533333044304136350D0A3A3130303824
:1017C00037303030334133313330333033333330EB
:1017D00033303330333033303334333233323433E5
:1017E0003338333634310D0A3A313030383830300E
:1017F00030333833303330333033303330333033C9
:1018000030343333303333333233323433333833A9
:101810003932320D0A3A31303038393030303338DD
:101820003330333033303334333033343432333095
:101830003334343530443041334133313330354241
:101840000D0A3A31303038413030303330333333B1
:101850003133303330333033303334333233323466
:10186000333338343133383330333030380D0A3A8B
:101870003130303842303030333033303330333041
:101880003330343333303333333233323433333829
:10189000343433383330333045370D0A3A31303051
:1018A0003843303030333033343330333434323300
:1018B00034343234313044304133413331333033D6
:1018C000303333333232300D0A3A3130303844302D
:1018D00030303330333033303330333433323332EB
:1018E00034333338343533383330333033303330C6
:1018F000333044380D0A3A313030384530303033E7
:1019000030333034333330333333323332343333B0
:101910003933313338333033303330333433304389
:10192000350D0A3A313030384630303033343432C5
:10193000333833323335304430413341333133304F
:1019400033303333333333303330333030420D0AB6
:101950003A31303039303030303330333433323361
:101960003234333339333233383330333033303346
:1019700030333033303330343341360D0A3A31307E
:101980003039313030303330333333323332343333
:101990003339333533383330333033303334333015
:1019A00033343432343337410D0A3A31303039323E
:1019B00030303033393330304430413341333133D8
:1019C00030333033333334333033303330333033F8
:1019D00034333245460D0A3A313030393330303005
:1019E00033323433333933363338333033303330C2
:1019F00033303330333033303433333033333332C6
:101A000037330D0A3A3130303934303030333234F4
:101A1000333339333933383330333033303334338D
:101A20003033343433333034363433304435370D97
:101A30000A3A31303039353030303041334133318A
:101A40003330333033333335333033303330333076
:101A50003334333233323433333938360D0A3A3192
:101A6000303039363030303431333833303330334E
:101A70003033303330333033303433333033333347
:101A80003233323433333933380D0A3A3130303966
:101A9000373030303434333833303330333033341C
:101AA00033303334343333343336333830443041E5
:101AB0003341333136430D0A3A3130303938303022
:101AC00030333033303333333633303330333033F5
:101AD00030333433323332343333393435333833CB
:101AE0003031440D0A3A313030393930303033300A
:101AF00033303330333033303330343333303333C7
:101B000033323332343334313331333833303130AC
:101B10000D0A3A31303039413030303330333033E0
:101B20003433303334343333383434333330443073
:101B3000413341333133303330333334380D0A3AA3
:101B40003130303942303030333733303330333066
:101B50003330333433323332343334313332333855
:101B6000333033303330333046410D0A3A31303080
:101B70003943303030333033303330343333303333
:101B80003333323332343334313335333833303323
:101B9000303330333444380D0A3A31303039443040
:101BA00030303330333434333433333334353044FA
:101BB00030413341333133303330333333383330E2
:101BC000333030380D0A3A31303039453030303327
:101BD00030333033343332333234333431333633D9
:101BE00038333033303330333033303330333043C5
:101BF000440D0A3A313030394630303034333330E6
:101C0000333333323332343334313339333833309E
:101C100033303330333433303334343438430D0AD3
:101C20003A3130304130303030333034313431308B
:101C3000443041334133313330333033333339334C
:101C400030333033303330333446320D0A3A3130AA
:101C50003041313030303332333234333431343157
:101C60003338333033303330333033303330333054
:101C700034333330333337460D0A3A313030413262
:101C80003030303332333234333431343433383328
:101C9000303330333033343330333434343334331B
:101CA00031333635420D0A3A31303041333030303D
:101CB00030443041334133313330333033333431D6
:101CC00033303330333033303334333233323433F0
:101CD00043350D0A3A31303041343030303431340C
:101CE00035333833303330333033303330333033CF
:101CF0003034333330333333323332343334420DD0
:101D00000A3A3130304135303030343233313338C3
:101D10003330333033303334333033343434333896
:101D20003338333130443041334138440D0A3A318D
:101D30003030413630303033313330333033333478
:101D40003233303330333033303334333233323470
:101D50003334323332333833390D0A3A313030418B
:101D6000373030303330333033303330333033305A
:101D70003330343333303333333233323433343239
:101D80003335333832410D0A3A3130304138303052
:101D9000303330333033303334333033343434341D
:101DA00033343534333044304133413331333033DD
:101DB0003034440D0A3A3130304139303030333329
:101DC00034333330333033303330333433323332EF
:101DD00034333432333633383330333033303035D4
:101DE0000D0A3A3130304141303030333033303306
:101DF00030333034333330333333323332343334BB
:101E0000323339333833303330333046360D0A3AD3
:101E10003130304142303030333433303334343584
:101E2000333033353338304430413341333133305C
:101E3000333033333434333033330D0A3A313030C6
:101E40004143303030333033303330333433323356
:101E50003234333432343133383330333033303357
:101E6000303330333045300D0A3A31303041443070
:101E7000303033303433333033333332333234333E
:101E80003432343433383330333033303334333026
:101E9000333442330D0A3A3130304145303030343A
:101EA00035333434333334304430413341333133D8
:101EB00030333033333435333033303330333046EE
:101EC000430D0A3A3130304146303030333433320A
:101ED00033323433343234353338333033303330D3
:101EE00033303330333033303433333039390D0A13
:101EF0003A313030423030303033333332333234B1
:101F000033343333313338333033303330333433A5
:101F100030333434353338333238380D0A3A3130CF
:101F20003042313030303436304430413341333157
:101F3000333033303333343633303330333033307F
:101F400033343332333244430D0A3A313030423283
:101F5000303030343334333332333833303330335A
:101F60003033303330333033303433333033333352
:101F700032333237420D0A3A31303042333030306A
:101F80003433343333353338333033303330333420
:101F900033303334343534333339343130443041F1
:101FA00038310D0A3A313030423430303033413339
:101FB0003133303330333433303330333033303304
:101FC0003033343332333234333433333636320D04
:101FD0000A3A3130304235303030333833303330F4
:101FE00033303330333033303330343333303333D2
:101FF0003332333234333433333934340D0A3A31F3
:1020000030304236303030333833303330333033A1
:102010003433303334343633303330333530443086
:102020004133413331333039380D0A3A313030429F
:102030003730303033303334333133303330333082
:10204000333033343332333234333433343133385E
:102050003330333032390D0A3A3130304238303093
:102060003033303330333033303330343333303354
:10207000333332333234333433343433383330332C
:102080003030390D0A3A3130304239303030333067
:1020900033343330333434363334333733313044FC
:1020A00030413341333133303330333433323633EC
:1020B0000D0A3A3130304241303030333033303332
:1020C00030333033343332333234333433343533E2
:1020D000383330333033303330333046410D0A3A01
:1020E00031303042423030303330333034333330BB
:1020F00033333332333234333434333133383330AF
:10210000333033303334333045370D0A3A313030E1
:10211000424330303033343436333834343433306F
:10212000443041334133313330333033343333335C
:10213000303330333031330D0A3A313030424430AD
:102140003030333033343332333234333434333267
:10215000333833303330333033303330333033305F
:10216000343343390D0A3A31303042453030303360
:10217000303333333233323433343433353338332A
:10218000303330333033343330333434363433391E
:10219000390D0A3A3130304246303030333433373B
:1021A00030443041334133313330333033343334DE
:1021B00033303330333033303334333231410D0A3E
:1021C0003A313030433030303033323433343433DA
:1021D00036333833303330333033303330333033D9
:1021E00030343333303333333239350D0A3A31300A
:1021F00030433130303033323433343433393338A0
:1022000033303330333033343330333533303330AD
:1022100034323332304441300D0A3A3130304332B7
:102220003030303041334133313330333033343375
:102230003533303330333033303334333233323478
:1022400033343441370D0A3A313030433330303093
:10225000343133383330333033303330333033305C
:102260003330343333303333333233323433343442
:1022700035410D0A3A313030433430303034343364
:102280003833303330333033343330333533303325
:102290003433313435304430413341333141330DFF
:1022A0000A3A313030433530303033303330333424
:1022B00033363330333033303330333433323332F8
:1022C0003433343434353338333033450D0A3A310E
:1022D00030304336303030333033303330333033D6
:1022E00030333034333330333333323332343334C6
:1022F0003533313338333033390D0A3A31303043E6
:1023000037303030333033303334333033353330AB
:10231000333833383339304430413341333133305B
:102320003330333438430D0A3A31303043383030AB
:102330003033373330333033303330333433323378
:10234000323433343533323338333033303330335F
:102350003032330D0A3A3130304339303030333097
:102360003330333034333330333333323332343346
:102370003435333533383330333033303334303130
:102380000D0A3A3130304341303030333033353359
:1023900030343334363334304430413341333133E5
:1023A000303330333433383330333034340D0A3A49
:1023B00031303043423030303330333033343332E5
:1023C00033323433343533363338333033303330DB
:1023D000333033303330333046360D0A3A31303013
:1023E00043433030303433333033333332333234A9
:1023F00033343533393338333033303330333433A7
:10240000303335333143370D0A3A313030434430BD
:102410003030333033363330304430413341333170
:102420003330333033343339333033303330333087
:10243000333433420D0A3A31303043453030303393
:10244000323332343334353431333833303330335C
:10245000303330333033303330343333303333414F
:10246000390D0A3A3130304346303030333233326E
:102470003433343534343338333033303330333429
:1024800033303335333133343433343337380D0A62
:102490003A313030443030303030443041334133E1
:1024A000313330333033343431333033303330330D
:1024B00030333433323332343346310D0A3A31302B
:1024C00030443130303034353435333833303330D4
:1024D00033303330333033303330343333303333DD
:1024E00033323332343337340D0A3A3130304432F8
:1024F00030303034363331333833303330333033B7
:102500003433303335333133383333333730443089
:1025100041334143370D0A3A3130304433303030A3
:10252000333133303330333434323330333033308B
:102530003330333433323332343334363332333866
:1025400036310D0A3A3130304434303030333033A4
:10255000303330333033303330333034333330335F
:102560003333323332343334363335333835330D55
:102570000A3A313030443530303033303330333054
:102580003334333033353331343334313332304410
:102590003041334133313330333041310D0A3A3138
:1025A00030304436303030333434333330333033FA
:1025B00030333033343332333234333436333633EA
:1025C0003833303330333032440D0A3A313030440E
:1025D00037303030333033303330333034333330DE
:1025E00033333332333234333436333933383330B0
:1025F0003330333031460D0A3A31303044383030E0
:1026000030333433303335333233303330343530A4
:102610004430413341333133303330333434343365
:102620003036390D0A3A31303044393030303330B9
:10263000333033303334333233323433343634316D
:102640003338333033303330333033303330303964
:102650000D0A3A3130304441303030333034333386
:102660003033333332333234333436343433383333
:10267000303330333033343330333544420D0A3A5B
:102680003130304442303030333233343337343108
:1026900030443041334133313330333033343435E7
:1026A000333033303330333033410D0A3A31303048
:1026B00044433030303334333233323433343634CD
:1026C00035333833303330333033303330333033E5
:1026D000303336333043460D0A3A313030444430DB
:1026E00030303332333233333338333033303330C6
:1026F00033303330333033303330333033313330C1
:10270000333746430D0A3A313030444530303033A8
:102710003430443041334133313330333033343467
:102720003633303330333033303332333233333186
:10273000430D0A3A3130304446303030333833308C
:10274000333433303330333033303330333033306D
:1027500033313332333033323332333344440D0A7E
:102760003A3130304530303030333833303338332D
:10277000303330333033303330333033303333333E
:1027800030343233303044304130360D0A3A313053
:1027900030453130303033413331333033303335FD
:1027A000333033303330333033303332333233330A
:1027B00033383330343341300D0A3A31303045321A
:1027C00030303033303330333033303330333033F4
:1027D00030333034353330333233323333333833CC
:1027E00033333839330D0A3A3130304533303030F5
:1027F00033303330333033303337343133313332B5
:10280000333033383338304430413341333133306F
:1028100043350D0A3A3130304534303030333033BF
:102820003533313330333033303330333233323386
:102830003333383333343333303330333037370D89
:102840000A3A313030453530303033303330333080
:102850003331343633343330333233323333333845
:102860003432343333303330333034330D0A3A3189
:10287000303045363030303330333033303330332E
:1028800030333133303434304430413341333133F9
:102890003033303335333241340D0A3A313030453C
:1028A000373030303330333033303330343133300D
:1028B00033303330333033303332333033303330FE
:1028C0003330333035460D0A3A3130304538303008
:1028D00030333033303331333033323332333333D8
:1028E00038333333303330333033303330333734BD
:1028F0003133370D0A3A31303045393030303331E9
:102900003332333033343435304430413341333172
:102910003330333033353333333033303330364381
:102920000D0A3A31303045413030303330333233B4
:10293000323333333833333334333033303330336B
:10294000303330333033313436333431310D0A3AA9
:102950003130304542303030333034313330333041
:10296000333033303330333233303330333033304D
:10297000333033303330333231440D0A3A31303072
:1029800045433030303434333030443041334133D8
:102990003133303330333533343330333033303315
:1029A000303332333233460D0A3A31303045443019
:1029B00030303333333833333330333033303330F4
:1029C00033303330333133333338333833303332D9
:1029D000333245430D0A3A313030454530303033DB
:1029E00033333833333334333033303330333033BD
:1029F000303330333033303335333734323044468C
:102A0000350D0A3A313030454630303030413341AF
:102A10003331333033303335333533303330333093
:102A200033303431333033303330333046320D0AC3
:102A30003A31303046303030303330333233303367
:102A4000303330333033303330333033343330336A
:102A500032333233333338333343390D0A3A31307A
:102A60003046313030303330333033303330333040
:102A7000333033303331333333383431343130441D
:102A800030413341333145310D0A3A31303046322D
:102A90003030303330333033353336333033303316
:102AA00030333033323332333333383333333433F8
:102AB00030333041300D0A3A313030463330303027
:102AC00033303330333033303330333033303330EE
:102AD00033353332333433303330333033303333D0
:102AE00041330D0A3A3130304634303030333234ED
:102AF00036343533303330333033303334343130AF
:102B00004430413341333133303330333539380D8C
:102B10000A3A3130304635303030333733303330A5
:102B2000333033303335333233343338333033307A
:102B30003330333133303334333436450D0A3A31A0
:102B40003030463630303033303433343333303352
:102B5000303336333233343339343533383330333A
:102B60003634313339333630330D0A3A313030466A
:102B70003730303033303335333233383333343425
:102B800030443041334133313330333033353338EF
:102B90003330333037430D0A3A3130304638303035
:102BA000303330333034313330333033303330330B
:102BB00030333133303330333033303330333033FC
:102BC0003034460D0A3A3130304639303030333205
:102BD00033303332333233333331333433383330C9
:102BE00033303330333033303330333033303342BB
:102BF0000D0A3A31303046413030303330343133E1
:102C00003530443041334133313330333033353371
:102C1000393330333033303330343134410D0A3AC4
:102C2000313030464230303033303330333033306F
:102C3000333033313330333033303330333033307B
:102C4000333033343330333232410D0A3A3130309D
:102C50004643303030333233333331333433383327
:102C6000303330333033303330333033303330334C
:102C7000303339333330330D0A3A31303046443053
:102C800030303044304133413331333033303335F9
:102C90003431333033303330333033313332333017
:102CA000333033360D0A3A31303046453030303328
:102CB00030333033303330333033303330333033FC
:102CC00030333033303330333133323330333046D6
:102CD000450D0A3A313030464630303033303330EB
:102CE00033343330333033303330333033303330C8
:102CF00033303330333530443041334132370D0ACD
:102D00003A313031303030303033313330333033AA
:102D10003534323330333033303330333133323390
:102D200030333033303330333842440D0A3A3130A7
:102D30003130313030303330333033303330333082
:102D40003330333033303330333133323330333068
:102D500033303330343342410D0A3A31303130327E
:102D6000303030333033303330333033303330334E
:102D700030333034353335304430413341333133FF
:102D800030333045340D0A3A313031303330303061
:102D9000333534333330333033303330333133320F
:102DA000333033303330333133303330333033300A
:102DB00039340D0A3A313031303430303033303339
:102DC00030333033303330333033313332333033E8
:102DD0003033303331333433303330333039380DEE
:102DE0000A3A3130313035303030333033303330EF
:102DF0003330333034333335304430413341333181
:102E00003330333033353434333039440D0A3A31CA
:102E10003031303630303033303330333033333399
:102E20003233303330333033323330333033303386
:102E30003134313330333536320D0A3A31303130B6
:102E40003730303033323431333033333332333060
:102E50003330333034313334333033303330333252
:102E60003330333533430D0A3A3130313038303076
:102E700030333433343337343430443041334133F6
:102E8000313330333033353435333033303330331E
:102E90003036310D0A3A313031303930303033325A
:102EA0003332333033303332333233343330333000
:102EB00033303330333033303330333033303434F5
:102EC0000D0A3A3130313041303030333233323321
:102ED00030333033323333333433303330333033D1
:102EE000303330333033303330333632440D0A3AF6
:102EF000313031304230303034323044304133417F
:102F0000333133303330333534363330333033309C
:102F1000333033323332333033440D0A3A313031C7
:102F20003043303030333033323334343333303372
:102F30003033303330333033303330333033303379
:102F4000323332333030330D0A3A3130313044309D
:102F50003030333033323435333433303330333050
:102F6000333034363436343634363338333530440F
:102F7000304144390D0A3A31303130453030303348
:102F80004133313330333033363330333033303311
:102F900030333033383332333033323330333045FB
:102FA000330D0A3A3130313046303030333033303F
:102FB00033303330333033303338333033303330F1
:102FC00033343332333233313331333044450D0A05
:102FD0003A313031313030303033383330333033D0
:102FE00030333033303330333033323335333930BC
:102FF00044304133413331333030350D0A3A3130CA
:1030000031313130303033303336333133303330A7
:103010003330333033343332333233313332333984
:1030200033303330333042340D0A3A3130313132BB
:103030003030303330333033303330333033363375
:103040003033343332333233333334333033303359
:1030500030333041410D0A3A313031313330303084
:103060003330333033303330333033323432333043
:1030700030443041334133313330333033363332FF
:1030800044310D0A3A31303131343030303330335D
:10309000303330333033343332333233363330330A
:1030A0003433303330333033303330333038440D11
:1030B0000A3A313031313530303033303333333018
:1030C00033303334333233323338343333303330D4
:1030D0003330333033303330333036390D0A3A3110
:1030E00030313136303030333033313330333133C7
:1030F000323044304133413331333033303336337F
:103100003333303330333042300D0A3A31303131DD
:10311000373030303330333433323332333133318C
:103120003331333033303330333033303330333086
:103130003330333236320D0A3A31303131383030B3
:10314000303330333433323332333133323431335A
:10315000383330333033303330333033303330334F
:103160003633350D0A3A3130313139303030333879
:1031700034323044304133413331333033303336FD
:103180003334333033303330333033343332363317
:103190000D0A3A313031314130303033323333334C
:1031A00034333033383330333033303330333033FB
:1031B000303330333233303334333232360D0A3A2F
:1031C00031303131423030303332333633313330D5
:1031D00033303330333033303330333033303333D4
:1031E000333033383436304432380D0A3A313031E6
:1031F0003143303030304133413331333033303389
:103200003633353330333033303330333433323395
:10321000323338343330430D0A3A313031314430AF
:103220003030333433303330333033303330333085
:10323000333033313330333033343332333233316C
:10324000333130300D0A3A3130313145303030339E
:10325000313338333033303330333033303330334D
:103260003033323334333730443041334133313209
:10327000370D0A3A31303131463030303330333067
:103280003336333633303330333033303334333214
:1032900033323331333234333330333043350D0A44
:1032A0003A31303132303030303330333033303304
:1032B00030333033303336333033343332333233E8
:1032C00033333433313330333043380D0A3A31300D
:1032D00031323130303033303330333033303330DB
:1032E0003330333233323330304430413341333191
:1032F00033303330333630320D0A3A3130313232F6
:10330000303030333733303330333033303334339D
:103310003233323336333134333330333033303386
:1033200030333039350D0A3A3130313233303030C4
:10333000333033303333333033303334333233326A
:103340003338343333383330333033303330333051
:1033500038300D0A3A313031323430303033303396
:10336000303331333034333331304430413341330F
:103370003133303330333633383330333042390D34
:103380000A3A313031323530303033303330333443
:10339000333233323331333133323330333033300D
:1033A0003330333033303330333038320D0A3A3142
:1033B00030313236303030333233303334333233ED
:1033C00032333133323434333833303330333033D3
:1033D0003033303330333035350D0A3A3130313215
:1033E0003730303033363436343230443041334184
:1033F00033313330333033363339333033303330A5
:103400003330333436420D0A3A31303132383030CD
:103410003033323332333333343331333833303380
:103420003033303330333033303330333233303382
:103430003434340D0A3A31303132393030303332AD
:103440003332333633323338333033303330333052
:10345000333033303330333333303431343531314A
:103460000D0A3A313031324130303030443041335E
:10347000413331333033303336343133303330331A
:10348000303330333433323332333835350D0A3A52
:103490003130313242303030343334333330333002
:1034A0003330333033303330333033313330333003
:1034B000333433323332333146450D0A3A31303109
:1034C00032433030303331333233383330333033CA
:1034D00030333033303330333033323336333730C8
:1034E000443041334134330D0A3A313031324430C3
:1034F00030303331333033303336343233303330AD
:103500003330333033343332333233313332343691
:10351000333044340D0A3A313031324530303033B3
:10352000303330333033303330333033303336337D
:103530003033343332333233333334333233304550
:10354000370D0A3A31303132463030303330333093
:103550003330333033303330333033323339333048
:1035600030443041334133313330333032310D0A5E
:103570003A31303133303030303336343333303326
:103580003033303330333433323332333633333312
:1035900034333033303330333041460D0A3A313032
:1035A0003133313030303330333033303333333004
:1035B00033303334333233323338343433303330DE
:1035C00033303330333041360D0A3A313031333213
:1035D00030303033303330333033313330333634CE
:1035E0003530443041334133313330333033363486
:1035F00034333043350D0A3A3130313333303030E3
:103600003330333033303334333233323331333198
:10361000333333303330333033303330333033308F
:1036200041300D0A3A3130313334303030333033B9
:103630003233303334333233323331333333303364
:103640003833303330333033303330333038370D74
:103650000A3A313031333530303033303336333667
:103660003431304430413341333133303330333609
:103670003435333033303330333039330D0A3A3167
:103680003031333630303033343332333233333316
:103690003433323338333033303330333033303304
:1036A0003033303332333036320D0A3A3130313341
:1036B00037303030333433323332333633343330DF
:1036C00033303330333033303330333033303333DF
:1036D0003330343334350D0A3A3130313338303009
:1036E000303433304430413341333133303330338D
:1036F000363436333033303330333033343332339F
:103700003236340D0A3A31303133393030303338D3
:103710003434333433303330333033303330333088
:103720003330333133303330333433323332323475
:103730000D0A3A31303133413030303331333133A7
:103740003333383330333033303330333033303356
:10375000303332333833363044304136390D0A3A5B
:103760003130313342303030334133313330333024
:103770003337333033303330333033303334333224
:10378000333233313333333230440D0A3A3130314E
:103790003343303030333033303330333033303301
:1037A00030333033303336333033343332333233F3
:1037B000333334333330350D0A3A3130313344301A
:1037C00030303330333033303330333033303330E4
:1037D0003330333234363435304430413341333191
:1037E000333031450D0A3A313031334530303033E2
:1037F00030333733313330333033303330333433A5
:10380000323332333633343433333033303330447D
:10381000300D0A3A313031334630303033303330C6
:103820003330333033333330333033343332333275
:1038300033383434333833303330333042450D0A83
:103840003A3130313430303030333033303330335C
:10385000303331333033313433304430413341331A
:1038600031333033303337333246430D0A3A313057
:10387000313431303030333033303330333033342F
:103880003332333233313331333433303330333016
:1038900033303330333042450D0A3A31303134322F
:1038A00030303033303330333233303334333233FB
:1038B00032333133333333333833303330333033DF
:1038C00030333041330D0A3A313031343330303017
:1038D000333033303336343433393044304133418C
:1038E00033313330333033373333333033303330B5
:1038F00042440D0A3A3130313434303030333033D1
:103900003433323332333333343333333833303385
:103910003033303330333033303330333238300DAE
:103920000A3A313031343530303033303334333299
:10393000333233363335333833303330333033305A
:103940003330333033303333333036450D0A3A3188
:103950003031343630303034353431304430413326
:103960004133313330333033373334333033303322
:103970003033303334333238330D0A3A3130313466
:10398000373030303332333834343433333033300B
:10399000333033303330333033303331333033300E
:1039A0003334333133350D0A3A3130313438303035
:1039B00030333033323334333033303330333033E9
:1039C00030333033303330343533303330343530D6
:1039D0004434460D0A3A31303134393030303041D8
:1039E00033413331333033303337333533303330A1
:1039F00033303330333333313330333233303535A2
:103A00000D0A3A31303134413030303331343333D0
:103A1000303330333033323330333533343336337D
:103A2000303332333133303332333031320D0A3ABE
:103A3000313031344230303034333330333033305E
:103A40003330333033303330333033323330333953
:103A5000304430413341333134430D0A3A3130314F
:103A60003443303030333033303337333633303320
:103A70003033303330333333313330333233303328
:103A8000303334333030350D0A3A3130313444304C
:103A900030303330333033323330333533343338FE
:103AA00033303332333133373330333033303338EC
:103AB000333045370D0A3A31303134453030303308
:103AC00030333033303330333033303332343533D6
:103AD0003030443041334133313330333033373198
:103AE000430D0A3A313031344630303033373330D9
:103AF00033303330333033323331333733303330A4
:103B000033323433333033303330333043360D0ACD
:103B10003A31303135303030303330333033303388
:103B2000333330333333313337333033303333336C
:103B300038333033303330333243300D0A3A31309A
:103B4000313531303030333033353334343133384C
:103B5000343530443041334133313330333033370F
:103B600033383330333043330D0A3A313031353264
:103B70003030303330333033333331333733303325
:103B8000303334333833303330333033353330330C
:103B900035333439360D0A3A31303135333030303F
:103BA00034333330333333313337333033303336E8
:103BB00033303330333033303335333033353335DE
:103BC00037380D0A3A313031353430303033313412
:103BD0003434333044304133413331333033303394
:103BE0003733393330333033303330333339450DB5
:103BF0000A3A3130313535303030333133373330C4
:103C0000333033373338333033303330333233308B
:103C10003335333533363330333236300D0A3A31BB
:103C20003031353630303033313337333033303371
:103C30003033343330333033303330333033303368
:103C40003034363333343534310D0A3A313031358E
:103C5000373030303044304133413331333033301A
:103C60003337343133303330333033303332333130
:103C70003330333838360D0A3A3130313538303058
:103C8000303330333033303330333033303330331C
:103C900031333033383330333033343331333033FE
:103CA0003834350D0A3A313031353930303033302F
:103CB00033343330333033303330333033303330E8
:103CC000333033323335333130443041334137458B
:103CD0000D0A3A3130313541303030333133303301
:103CE00030333734323330333033303330333233B0
:103CF000313330333833303431343346320D0A3ACD
:103D0000313031354230303033303330333033308E
:103D10003330333033303330333033323331333088
:103D2000333833303333333831350D0A3A313031AB
:103D30003543303030333033303330333033303359
:103D40003033313330333233313044304133413327
:103D5000313330333035350D0A3A31303135443076
:103D60003030333734333330333033303330333231
:103D70003331333033383331333033303330333021
:103D8000333045350D0A3A31303135453030303336
:103D90003033303330333033303330333433313306
:103DA00030333833313332333033303330333045DE
:103DB000420D0A3A3130313546303030333033300D
:103DC000333033303332343434363044304133419D
:103DD00033313330333033373434333045320D0AF6
:103DE0003A313031363030303033303330333033B5
:103DF0003233313330333833303330333833303398
:103E000030333033303330333243350D0A3A3130CA
:103E10003136313030303432333533303332333180
:103E20003330333833303331333033303330333071
:103E300033303330333041370D0A3A313031363296
:103E40003030303330333033323336304430413336
:103E5000413331333033303337343533303330332B
:103E600030333044340D0A3A31303136333030306B
:103E70003332333133303338333133303338333016
:103E800033303330333134363436343634363330FD
:103E900033440D0A3A313031363430303033343334
:103EA00031333033383332333033303330333033EF
:103EB0003033303330333033343431333836450DEA
:103EC0000A3A3130313635303030343630443041D2
:103ED00033413331333033303337343633303330AA
:103EE0003330333033343331333039300D0A3A31F3
:103EF0003031363630303033383331333433303399
:103F00003033303330333033303330333033323397
:103F10003033323331333036380D0A3A31303136BE
:103F20003730303033383330333033303330333070
:103F30003330333033313431333833303436333651
:103F40003044304137350D0A3A313031363830306F
:103F5000303341333133303330333833303330332F
:103F6000303330333033343331333033393330332B
:103F70003033390D0A3A3130313639303030333060
:103F80003330333033303330333033303332333413
:103F900033303334333133303339333133323333F5
:103FA0000D0A3A313031364130303033303330332E
:103FB00030333033303330333033343431333133E2
:103FC000313044304133413331333036310D0A3AE8
:103FD00031303136423030303330333833313330B2
:103FE00033303330333033343331333033393333A8
:103FF000333733303330333030390D0A3A313031E2
:104000003643303030333033303330333033343480
:104010003133303334333133303339333534333370
:10402000303330333044460D0A3A31303136443083
:104030003030333033303330333033343431343361
:10404000333430443041334133313330333033381B
:10405000333231320D0A3A31303136453030303377
:10406000303330333033303332333133303338332D
:104070003033303334333033303330333033314511
:10408000410D0A3A31303136463030303330333832
:1040900033303330333433313330333833303334F7
:1040A00033383330333033303330333043390D0A23
:1040B0003A313031373030303033303330333234DE
:1040C00033333430443041334133313330333033A0
:1040D00038333333303330333046330D0A3A3130EE
:1040E00031373130303033303332333133303338AD
:1040F00033303432333033303330333033303330A5
:1041000033303330333141420D0A3A3130313732B6
:10411000303030333033323331333033383330337F
:104120003334333330333033303330333033303370
:1041300031333039370D0A3A31303137333030309E
:104140003339333730443041334133313330333016
:104150003338333433303330333033303332333138
:1041600043380D0A3A313031373430303033303360
:10417000383331333033343330333033303330331A
:104180003033303330333033303334333138370D2C
:104190000A3A31303137353030303330333833311B
:1041A00033323338333033303330333033303330ED
:1041B0003330333233353332304439300D0A3A310B
:1041C00030313736303030304133413331333033B2
:1041D00030333833353330333033303330333233B8
:1041E0003133303338333037430D0A3A31303137D9
:1041F00037303030333034333330333033303330A2
:104200003330333234323335333033323331333089
:104210003338333033320D0A3A31303137383030B9
:104220003033313334333033303330333033303371
:104230003033303330333934343044304133413328
:104240003137350D0A3A313031373930303033308B
:104250003330333833363330333033303330333236
:104260003331333033383331333034333330314317
:104270000D0A3A313031374130303033303330335A
:1042800031343634363436343633303334333133F4
:10429000303338333433303330333043460D0A3A19
:1042A00031303137423030303330333033303330E7
:1042B00033303334343133303338304430413341A8
:1042C000333133303330333834320D0A3A31303110
:1042D00037433030303337333033303330333033AB
:1042E000343331333033383331333433383330339C
:1042F000303330333046380D0A3A313031374430BC
:104300003030333033303330333233303332333193
:104310003330333833303330333433303330333079
:10432000333046380D0A3A3130313745303030338A
:10433000313431333833303336333930443041332C
:104340004133313330333033383338333033304620
:10435000450D0A3A31303137463030303330333062
:10436000333433313330333933303339333033301E
:1043700033303330333033303330333244300D0A5E
:104380003A31303138303030303334333033343305
:1043900031333033393332333433383330333033ED
:1043A00030333033303330333442340D0A3A313025
:1043B00031383130303034313434333830443041B6
:1043C00033413331333033303338333933303330B2
:1043D00033303330333443340D0A3A3130313832EC
:1043E0003030303331333033393334333933383399
:1043F000303330333033303330333033343431339F
:1044000030333438300D0A3A3130313833303030CF
:104410003331333033393336343533383330333066
:104420003330333033303330333434313436333265
:1044300034450D0A3A313031383430303030443080
:104440004133413331333033303338343133303327
:104450003033303330333233313330333842320D4E
:104460000A3A313031383530303033303330333050
:10447000333033303330333033313330333833301B
:104480003330333433313330333837320D0A3A3145
:1044900030313836303030333033343330333033FA
:1044A00030333033303330333033303332333533ED
:1044B0003030443041334141430D0A3A31303138D4
:1044C00037303030333133303330333834323330C7
:1044D00033303330333033323331333033383330B9
:1044E0003431343331450D0A3A31303138383030D7
:1044F00030333033303330333033303330333033A4
:104500003233303332333133303338333033333383
:104510003834300D0A3A31303138393030303330B8
:104520003330333033303330333033313330333171
:104530003435304430413341333133303330364613
:104540000D0A3A313031384130303033383433337A
:104550003033303330333033323331333033383338
:10456000313330333033303330333031310D0A3A78
:104570003130313842303030333033303330333013
:104580003330333033343331333033383331333203
:10459000333033303330333031380D0A3A31303143
:1045A00038433030303330333033303330333234DB
:1045B00034343530443041334133313330333033A8
:1045C000383434333030460D0A3A313031384430E3
:1045D00030303330333033303332333133303338BB
:1045E00033303330333833303330333033303330AB
:1045F000333246330D0A3A313031384530303034B9
:104600003233353330333233313330333833303380
:104610003133303330333033303330333033304470
:10462000350D0A3A3130313846303030333033309E
:10463000333233353044304133413331333033302A
:1046400033383435333033303330333030320D0A91
:104650003A31303139303030303332333133303336
:10466000383331333033383330333033303331341F
:1046700036343634363436333036410D0A3A31303A
:104680003139313030303334333133303338333201
:104690003330333033303330333033303330333002
:1046A00033343431333839420D0A3A31303139320A
:1046B00030303034353044304133413331333033AE
:1046C00030333834363330333033303330333433BF
:1046D00031333042440D0A3A3130313933303030E1
:1046E00033383331333433303330333033303330A5
:1046F000333033303330333233303332333133309D
:1047000039350D0A3A3130313934303030333833BD
:10471000303330333033303330333033303331347F
:104720003133383330343633353044304141330D52
:104730000A3A31303139353030303341333133306A
:104740003330333933303330333033303330333444
:104750003331333033393330333036350D0A3A3173
:10476000303139363030303330333033303330332A
:104770003033303330333233343330333433313316
:104780003033393331333236300D0A3A3130313942
:104790003730303033303330333033303330333000
:1047A00033303334343133313330304430413341BA
:1047B0003331333038460D0A3A3130313938303000
:1047C00030333033393331333033303330333033C7
:1047D00034333133303339333333373330333033A9
:1047E0003033350D0A3A31303139393030303330E9
:1047F0003330333033303334343133303334333196
:10480000333033393335343333303330333030436E
:104810000D0A3A31303139413030303330333033B2
:104820003033303334343134333333304430413344
:10483000413331333033303339333233460D0A3A72
:10484000313031394230303033303330333033303F
:104850003332333133303338333033303334333031
:10486000333033303330333131370D0A3A31303170
:1048700039433030303330333833303330333433FE
:1048800031333033383330333433383330333033FB
:10489000303330333046360D0A3A31303139443016
:1048A00030303330333033323433333330443041CB
:1048B00033413331333033303339333333303330C2
:1048C000333032310D0A3A313031394530303033FE
:1048D00030333233313330333833303432333033B2
:1048E000303330333033303330333033303333449C
:1048F000370D0A3A313031394630303033303332C7
:10490000333133303338333033333433333033307F
:1049100033303330333033303331333043350D0AB5
:104920003A31303141303030303339333430443043
:10493000413341333133303330333933343330332F
:1049400030333033303332333146370D0A3A313079
:104950003141313030303330333833313330333428
:10496000333033303330333033303330333033302F
:1049700033303334333142340D0A3A31303141323D
:1049800030303033303338333133323338333033FF
:1049900030333033303330333033303332333533F8
:1049A00031304442450D0A3A3130314133303030F4
:1049B00030413341333133303330333933353330B1
:1049C00033303330333033323331333033383330C4
:1049D00041380D0A3A3130314134303030333034DF
:1049E00033333033303330333033303332343233A7
:1049F0003533303332333133303338333035460D9D
:104A00000A3A31303141353030303331333433309C
:104A10003330333033303330333033303330333975
:104A20003433304430413341333141330D0A3A316C
:104A30003031413630303033303330333933363340
:104A40003033303330333033323331333033383343
:104A50003133303433333034380D0A3A3130314168
:104A60003730303033303330333134363436343617
:104A70003436333033343331333033383334333006
:104A80003330333046430D0A3A313031413830301B
:104A900030333033303330333033303334343133F8
:104AA00030333730443041334133313330333033B6
:104AB0003936460D0A3A31303141393030303337EA
:104AC00033303330333033303334333133303338C1
:104AD00033313334333833303330333033303235AD
:104AE0000D0A3A31303141413030303330333033D8
:104AF0003033323330333233313330333833303391
:104B0000303334333033303330333032350D0A3ACA
:104B10003130314142303030333134313338333059
:104B2000333633383044304133413331333033302E
:104B3000333933383330333032420D0A3A31303181
:104B4000414330303033303330333433313330332A
:104B5000393330333933303330333033303330332B
:104B6000303330333246440D0A3A3130314144302B
:104B7000303033343330333433313330333933320C
:104B80003334333833303330333033303330333001
:104B9000333445320D0A3A3130314145303030340A
:104BA00031343433373044304133413331333033AF
:104BB00030333933393330333033303330333446B4
:104BC000320D0A3A313031414630303033313330F2
:104BD000333933343339333833303330333033309F
:104BE00033303330333434313330333441450D0ACC
:104BF0003A31303142303030303331333033393381
:104C00003634353338333033303330333033303378
:104C100030333434313436333137430D0A3A31309E
:104C20003142313030303044304133413331333030
:104C3000333033393431333033303330333033324F
:104C400033313330333844450D0A3A313031423252
:104C5000303030333033303330333033303330333F
:104C6000303331333033383330333033343331331E
:104C700030333839460D0A3A313031423330303032
:104C80003330333433303330333033303330333008
:104C900033303330333233343436304430413341BF
:104CA00043340D0A3A31303142343030303331330D
:104CB00030333033393432333033303330333033D0
:104CC0003233313330333833303431343334410DCF
:104CD0000A3A3130314235303030333033303330CE
:104CE00033303330333033303334333033323331A5
:104CF0003330333833303333333836420D0A3A31B8
:104D0000303142363030303330333033303330337B
:104D10003033303331333033313432304430413357
:104D20004133313330333039460D0A3A3130314274
:104D3000373030303339343333303330333033304D
:104D4000333233313330333833313330333033303F
:104D50003330333033440D0A3A3130314238303059
:104D60003033303330333033303330333033343327
:104D7000313330333833313332333033303330330F
:104D80003034350D0A3A3130314239303030333039
:104D900033303330333033323434343430443041D0
:104DA00033413331333033303339343433303343B8
:104DB0000D0A3A3130314241303030333033303304
:104DC00030333233313330333833303330333833B8
:104DD000303330333033303330333232300D0A3AFF
:104DE0003130314242303030343233353330333287
:104DF0003331333033383330333133303330333091
:104E0000333033303330333030320D0A3A313031D1
:104E10004243303030333033303332333430443047
:104E20004133413331333033303339343533303338
:104E3000303330333032460D0A3A3130314244306B
:104E40003030333233313330333833313330333839
:104E5000333033303330333134363436343634361D
:104E6000333039380D0A3A31303142453030303341
:104E7000343331333033383332333033303330330B
:104E800030333033303330333033343431333843EC
:104E9000390D0A3A31303142463030303434304402
:104EA00030413341333133303330333934363330BA
:104EB00033303330333033343331333045420D0AFD
:104EC0003A313031433030303033383331333433AA
:104ED00030333033303330333033303330333033BA
:104EE00032333033323331333043320D0A3A3130DA
:104EF0003143313030303338333033303330333086
:104F00003330333033303331343133383330343677
:104F100033343044304144310D0A3A313031433278
:104F20003030303341333133303330343133303358
:104F3000303330333033303334333133303339334B
:104F400030333038410D0A3A31303143333030306C
:104F50003330333033303330333033303330333237
:104F60003334333033343331333033393331333214
:104F700038440D0A3A313031433430303033303335
:104F80003033303330333033303330333434313303
:104F90003034363044304133413331333041370DD2
:104FA0000A3A3130314335303030333034313331F7
:104FB00033303330333033303334333133303339CB
:104FC0003333333733303330333035410D0A3A31F0
:104FD00030314336303030333033303330333033A8
:104FE000343431333033343331333033393335348F
:104FF0003333303330333033390D0A3A31303143C3
:105000003730303033303330333033303334343181
:105010003433333230443041334133313330333041
:105020003431333236350D0A3A313031433830308D
:105030003033303330333033303332333133303355
:10504000383330333033343330333033303330333C
:105050003134340D0A3A3130314339303030333065
:105060003338333033303334333133303338333013
:10507000333433383330333033303330333032330A
:105080000D0A3A3130314341303030333033303330
:1050900032343333323044304133413331333033BF
:1050A000303431333333303330333034370D0A3A20
:1050B00031303143423030303330333233313330BA
:1050C00033383330343233303330333033303330BD
:1050D000333033303330333530320D0A3A313031FA
:1050E000434330303033303332333133303338337D
:1050F0003033333433333033303330333033303391
:10510000303331333046320D0A3A31303143443096
:10511000303033393331304430413341333133303F
:10512000333034313334333033303330333033325F
:10513000333132300D0A3A3130314345303030337B
:10514000303338333133303334333033303330333A
:105150003033303330333033303330333433314520
:10516000320D0A3A31303143463030303330333843
:10517000333133323338333033303330333033300C
:1051800033303330333233353330304445440D0A15
:105190003A313031443030303030413341333133C3
:1051A00030333034313335333033303330333033E0
:1051B00032333133303338333043440D0A3A3130EF
:1051C00031443130303033303433333033303330B6
:1051D00033303330333234323335333033323331AA
:1051E00033303338333038430D0A3A3130314432BA
:1051F0003030303331333433303330333033303395
:10520000303330333033303339343230443041335B
:1052100041333144310D0A3A31303144333030308A
:10522000333033303431333633303330333033305E
:105230003332333133303338333133303433333046
:1052400036440D0A3A313031443430303033303363
:105250003033313436343634363436333033343315
:105260003133303338333433303330333032390D37
:105270000A3A313031443530303033303330333026
:1052800033303330333434313330333630443041DB
:105290003341333133303330343139350D0A3A311B
:1052A00030314436303030333733303330333033CD
:1052B00030333433313330333833313334333833BC
:1052C0003033303330333035320D0A3A31303144F7
:1052D00037303030333033303330333233303332B1
:1052E0003331333033383330333033343330333099
:1052F0003330333035320D0A3A31303144383030C2
:10530000303331343133383330333633373044305F
:105310004133413331333033303431333833303348
:105320003035310D0A3A3130314439303030333094
:10533000333033343331333033393330333933303E
:105340003330333033303330333033303332324133
:105350000D0A3A3130314441303030333433303358
:105360003433313330333933323334333833303309
:10537000303330333033303330333430460D0A3A43
:1053800031303144423030303431343433363044CB
:1053900030413341333133303330343133393330CA
:1053A000333033303330333431380D0A3A31303121
:1053B000444330303033313330333933343339339D
:1053C00038333033303330333033303330333434B8
:1053D000313330333444420D0A3A313031444430B1
:1053E000303033313330333933363435333833308A
:1053F0003330333033303330333033343431343688
:10540000333041420D0A3A3130314445303030308A
:10541000443041334133313330333034313431333C
:10542000303330333033303332333133303338305C
:10543000340D0A3A31303144463030303330333075
:10544000333033303330333033303331333033383B
:1054500033303330333433313330333843440D0A4F
:105460003A3130314530303030333033343330330B
:105470003033303330333033303330333033323312
:1054800034343530443041334146320D0A3A3130FC
:1054900031453130303033313330333034313432E0
:1054A00033303330333033303332333133303338D9
:1054B00033303431343336460D0A3A3130314532E7
:1054C00030303033303330333033303330333033C7
:1054D00030333633303332333133303338333033A3
:1054E00033333839360D0A3A3130314533303030C4
:1054F0003330333033303330333033303331333093
:105500003331333830443041334133313330333049
:1055100044360D0A3A31303145343030303431348C
:10552000333330333033303330333233313330335D
:105530003833313330333033303330333036320D6B
:105540000A3A313031453530303033303330333052
:105550003330333033303334333133303338333125
:105560003332333033303330333037320D0A3A315F
:105570003031453630303033303330333033303300
:1055800032343434333044304133413331333033C7
:105590003034313434333036320D0A3A313031451B
:1055A00037303030333033303330333233313330DF
:1055B00033383330333033383330333033303330C3
:1055C0003330333234440D0A3A31303145383030DB
:1055D00030343233353330333233313330333833A0
:1055E00030333133303330333033303330333033A2
:1055F0003032460D0A3A31303145393030303330AF
:10560000333033323333304430413341333133304C
:105610003330343134353330333033303330353563
:105620000D0A3A3130314541303030333233313385
:105630003033383331333033383330333033303341
:10564000313436343634363436333043350D0A3A55
:105650003130314542303030333433313330333808
:105660003332333033303330333033303330333020
:10567000333033343431333846360D0A3A31303131
:1056800045433030303433304430413341333133AB
:1056900030333034313436333033303330333033E9
:1056A000343331333031310D0A3A31303145443001
:1056B00030303338333133343330333033303330C8
:1056C00033303330333033303332333033323331BD
:1056D000333046300D0A3A313031454530303033C1
:1056E000383330333033303330333033303330339A
:1056F0003134313338333034363333304430413061
:10570000300D0A3A31303145463030303341333193
:10571000333033303432333033303330333033306E
:1057200033343331333033393330333042370D0A89
:105730003A3130314630303030333033303330333B
:105740003033303330333033323334333033343337
:1057500031333033393331333242410D0A3A31304B
:105760003146313030303330333033303330333012
:1057700033303330333434313330343530443041E6
:1057800033413331333044350D0A3A31303146320A
:1057900030303033303432333133303330333033F0
:1057A00030333433313330333933333337333033C9
:1057B00030333038360D0A3A3130314633303030FC
:1057C00033303330333033303334343133303334B7
:1057D000333133303339333534333330333033309E
:1057E00036360D0A3A3130314634303030333033CA
:1057F0003033303330333434313433333130443078
:105800004133413331333033303432333239320D76
:105810000A3A31303146353030303330333033307E
:105820003330333233313330333833303330333451
:105830003330333033303330333137310D0A3A318E
:105840003031463630303033303338333033303324
:105850003433313330333833303334333833303317
:105860003033303330333035300D0A3A3130314651
:1058700037303030333033303332343333313044F7
:1058800030413341333133303330343233333330DA
:105890003330333037340D0A3A3130314638303016
:1058A00030333033323331333033383330343233D2
:1058B00030333033303330333033303330333033D0
:1058C0003732440D0A3A31303146393030303330D6
:1058D000333233313330333833303333343333309E
:1058E000333033303330333033303331333031468B
:1058F0000D0A3A31303146413030303338343530AA
:105900004430413341333133303330343233343344
:10591000303330333033303332333133390D0A3AA8
:105920003130314642303030333033383331333038
:10593000333433303330333033303330333033304B
:10594000333033303334333130460D0A3A3130316D
:1059500046433030303330333833313332333833F9
:10596000303330333033303330333033303332331D
:10597000343436304430350D0A3A31303146443013
:1059800030303041334133313330333034323335DA
:1059900033303330333033303332333133303338E4
:1059A000333046410D0A3A313031464530303033DC
:1059B00030343333303330333033303330333234C8
:1059C000323335333033323331333033383330429E
:1059D000410D0A3A313031464630303033313334BC
:1059E000333033303330333033303330333033309F
:1059F00033393431304430413341333130300D0AA2
:105A00003A3130323030303030333033303432337A
:105A10003633303330333033303332333133303365
:105A200038333133303433333039390D0A3A313089
:105A30003230313030303330333033313436343645
:105A4000343634363330333433313330333833341F
:105A500033303330333035360D0A3A31303230326C
:105A6000303030333033303330333033303334341C
:105A700031333033353044304133413331333033D7
:105A800030343243320D0A3A313032303330303034
:105A900033373330333033303330333433313330E2
:105AA00033383331333433383330333033303330C9
:105AB00037460D0A3A3130323034303030333033FB
:105AC00030333033323330333233313330333833B1
:105AD0003033303334333033303330333037460DB6
